:0400000039EF04F0E0
:10060000004C434420446973706C617920202020A1
:10061000200054657374313333370000056EF00EDB
:100620008116F00E931692949296929289948996DE
:10063000899231EC04F0300ED0EC03F0050E26EC7C
:1006400004F0300ED0EC03F0010E26EC04F0320E74
:10065000D0EC03F0EFEC03F00009D8A4FBD7EFECEB
:1006600003F00009D8A4FBD70550D0EC03F0EFEC61
:1006700003F00009D8A4FBD7080ED0EC03F0EFEC90
:1006800003F00009D8A4FBD70F0ED0EC03F0EFEC79
:1006900003F00009D8A4FBD7010ED0EC03F0EFEC77
:1006A00003F00009D8A4FBD7040ED0EC03F0EFEC64
:1006B00003F00009D8A4FBD7800E60EC03F0120011
:1006C000046EF00E9316F00E81160450016E026A4D
:1006D000018E040E036E023402320132032EFBD768
:1006E00001500F0B81128994899640EC04F08982A5
:1006F00040EC04F08992F00E811604500F0B811229
:1007000040EC04F0898240EC04F089920F0E9312C1
:100710001200820E066EDE0EE82EFED7062EFCD7E5
:1007200089688A68240E0EEC03F0EFEC03F00009F0
:10073000D8A4FBD7060ED0EC03F00C0ED0EC03F0DF
:1007400000F0120E026E060E036E0CEC04F0400E6A
:1007500060EC03F0010E026E060E036E0CEC04F06A
:10076000F0D7016EF00E9316F00E811601380F0BC4
:100770000F0B81128986899440EC04F0898240EC49
:1007800004F08992F00E811601500F0B811240EC9B
:1007900004F0898240EC04F089920F0E931212004B
:1007A000016EF00E9316F00E811601380F0B0F0B31
:1007B00081128994899640EC04F0898240EC04F01F
:1007C0008992F00E811601500F0B811240EC04F05B
:1007D000898240EC04F089920F0E931212008984F2
:1007E000899640EC04F0898240EC04F081A60AD09E
:1007F000899240EC04F0898240EC04F0899289945B
:10080000010E1200899240EC04F0898240EC04F061
:1008100089928994000E12000FD0EFEC03F00009CA
:10082000D8A4FBD702C0F6FF03C0F7FF0800F550BD
:10083000B1EC03F0024A032A02C0F6FF03C0F7FF3F
:100840000800F5500009D8B41200E7D7026E0D0E6B
:10085000016EFC0EE82EFED7012EFCD7022EF7D734
:100860001200140E016E7A0EE82EFED7012EFCD770
:100870001200000EF86E060EF76E000189EF03F00D
:0A088000060EE82EFED700D012008D
:020000040020DA
:08000000FFFFFFFFFFFFFFFF00
:020000040030CA
:0E000000FF01191EFF8181FF0FC00FE00F40AE
:00000001FF
