:040000006FEF06F0A8
:100600000001000A006400E803102725643A25640D
:100610003A256400286E756C6C290025642C202511
:0306200073000064
:10062400110E1A6E000E1B6ED3D0250E2018D8B4EE
:1006340009D00DC0D9FF0EC0DAFF20C0DFFF0D4A7C
:100644000E2AC6D0000E186E42D01AC0D9FF1BC0A5
:10065400DAFFDECF1CF0DDCF1DF0020E1A26000EED
:100664001B221C501D10D8A41ED0140E1C6E060E86
:100674001D6E19D01CC0F6FF1DC0F7FFF86A0DC02F
:10068400D9FF0EC0DAFF050EF76403D00800F55059
:1006940005D0F6CFE9FFF7CFEAFFEF50DF6E1C4A33
:1006A4001D2A0D4A0E2A1CC0F6FF1DC0F7FFF86A6A
:1006B400050EF76403D00800F55005D0F6CFE9FF26
:1006C400F7CFEAFFEF500009D8B482D0D3D70FC0D8
:1006D400F6FF10C0F7FF0F4A102A0800F5CF20F0EC
:1006E4002050000AD8B480D0640AD8B407D00D0AC8
:1006F400D8B404D01A0AD8B4A8D76AD01AC0D9FF7B
:100704001BC0DAFFDECF1EF0DDCF1FF0020E1A266B
:10071400000E1B221FAE06D0030E18121E6C1F1EE5
:10072400D8B01F2A010E206E050E2018D8B412D09E
:100734002050020D010EF324F66E060EF420F76E1F
:100744000900F5501E5C0900F5501F58D8A002D0CE
:10075400202AEAD718C017F0030E1716D8B408D009
:100764000DC0D9FF0EC0DAFF2D0EDF6E0D4A0E2A22
:1007740020C019F029D01950020D010EF324F66E91
:10078400060EF420F76E0900F5CF03F00A00F5CF4A
:1007940004F01EC001F01FC002F02EEC05F001C0F1
:1007A40008F002C009F0000E0B6E0A0E0A6E80EC0F
:1007B40005F00850300F206E0DC0D9FF0EC0DAFFCF
:1007C40020C0DFFF0D4A0E2A19061928D8A4D3D752
:1007D4000FC0F6FF10C0F7FF0F4A102A0800F5CF2C
:1007E40020F02050D8A421D70DC0D9FF0EC0DAFFC5
:1007F400000EDF6E1200820E216EDE0EE82EFED792
:10080400212EFCD789688A689468270EC86E800EEA
:10081400016E080E37EC06F028EC06F0000E5E6E52
:10082400000E5D6E000E556E000E5F6E000E606E63
:10083400000E566E000E616E000E576E9280C50E4D
:100844005F6E040E606EFE0E616E60C001F061C0EA
:1008540002F05F50FFEC04F0000E626E000E586E62
:10086400000E5C6E000E5B6E6268625013EC06F064
:100874005BC001F05CC002F051EC06F028EC06F01D
:100884007FEC06F069EC06F00009D8A4FBD762EC13
:1008940006F001C059F002C05AF09E80634A642AEF
:1008A40064BE1AD0645004E11F0E635CD8A014D057
:1008B400000E646E000E636E654A662A66BE0CD036
:1008C400665004E1070E655CD8A006D0000E666E83
:1008D400000E656E5D4A5E2A230E0D6E000E0E6ECE
:1008E4000B0E0F6E060E106E5DC011F05EC012F09E
:1008F40065C013F066C014F063C015F064C016F050
:1009040012EC03F0410E0D6E000E0E6E1B0E0F6EF8
:10091400060E106E59C011F05AC012F0230E136E59
:10092400000E146E12EC03F0410E026E000E036E04
:10093400FCEC05F0030E226E8A0E216E560EE82E94
:10094400FED7212EFCD7222EFAD77CEC06F079ECC8
:1009540006F000EF00F0056EF00E8116F00E93160F
:100964009294929692928994899689925AEC06F07E
:10097400300EC0EC05F0050E46EC06F0300EC0EC6F
:1009840005F0010E46EC06F0320EC0EC05F0DFEC8B
:1009940005F00009D8A4FBD7DFEC05F00009D8A4C2
:1009A400FBD70550C0EC05F0DFEC05F00009D8A436
:1009B400FBD7080EC0EC05F0DFEC05F00009D8A465
:1009C400FBD70F0EC0EC05F0DFEC05F00009D8A44E
:1009D400FBD7010EC0EC05F0DFEC05F00009D8A44C
:1009E400FBD7040EC0EC05F0DFEC05F00009D8A439
:1009F400FBD7800E57EC05F01200056E000EC26E98
:100A0400000EC06ED89001303C0BC26E01C003F0E2
:100A1400033AF00E0316300E031602500F0B0310A8
:100A2400C16E05C003F0D8900336D8900336380E53
:100A3400031605C004F0043A0F0E0416070E04163C
:100A44000550800B04100310C06E01AE03D09E9CB1
:100A54009D8CF28CC2801200000E066E000E056E94
:100A640003500410D8B41CD0010E076E04D0D890E3
:100A740003360436072A04AEFAD7D890053606366C
:100A84000350015C04500258D8A005D00350015E05
:100A94000450025A0580D89004320332072EEDD751
:100AA40005C001F006C002F01200046EF00E9316A9
:100AB400F00E81160450016E026A018E040E036E5C
:100AC400023402320132032EFBD701500F0B811284
:100AD4008994899674EC06F0898274EC06F0899204
:100AE400F00E811604500F0B811274EC06F089820B
:100AF40074EC06F089920F0E931212000A500B1038
:100B0400D8B418D0010E0C6E04D0D8900A360B3627
:100B14000C2A0BAEFAD70A50085C0B500958D8A01F
:100B240004D00A50085E0B50095AD8900B320A328E
:100B34000C2EF1D708C008F009C009F01200016EAC
:100B4400F00E9316F00E811601380F0B0F0B811265
:100B54008986899474EC06F0898274EC06F0899293
:100B6400F00E811601500F0B811274EC06F089828D
:100B740074EC06F089920F0E93121200016EF00EBF
:100B84009316F00E811601380F0B0F0B8112899406
:100B9400899674EC06F0898274EC06F08992F00E62
:100BA400811601500F0B811274EC06F0898274ECEB
:100BB40006F089920F0E931212008984899674ECC0
:100BC40006F0898274EC06F081A60AD0899274EC4E
:100BD40006F0898274EC06F089928994010E120061
:100BE400899274EC06F0898274EC06F089928994F7
:100BF400000E12000ED0DFEC05F00009D8A4FBD7DC
:100C040002C0D9FF03C0DAFFDF50A1EC05F0024AAD
:100C1400032A02C0D9FF03C0DAFFDF50D8B41200A0
:100C2400EAD7016E01507E0BCD6E01AC02D0CD8EA1
:100C340001D0CD9E000ECF6E000ECE6E9E9001AE02
:100C440002D09D8001D09D90CD801200280EADEC85
:100C540004F0DFEC05F00009D8A4FBD7060EC0ECC5
:100C640005F00C0EC0EC05F01200026E3F0EC71624
:100C7400000EC66E000EC56E0250C6120150C71299
:100C840094869488C68A1200026E0D0E016EFC0EC4
:100C9400E82EFED7012EFCD7022EF7D7120001C092
:100CA40003F002C004F004C0CFFF03C0CEFF120063
:100CB400140E016E7A0EE82EFED7012EFCD7120018
:100CC400C450036EC350016E03C002F01200C2A2EE
:100CD40002D0010E1200000E1200000EF86E000188
:100CE400FDEF03F0060EE82EFED700D01200CD90E3
:0E0CF4009D901200C2909D9C1200C2821200C0
:020000040020DA
:08000000FFFFFFFFFFFFFFFF00
:020000040030CA
:0E000000FF01191EFF8181FF0FC00FE00F40AE
:00000001FF
