:04000000DBEF05F03D
:100600000001000A006400E80310276A73666A6448
:070610006A6400256400008C
:10061800110E146E000E156E8CD0250E1A18D8B453
:1006280009D00DC0D9FF0EC0DAFF1AC0DFFF0D4A8E
:100638000E2A7FD0000E166E0FC0F6FF10C0F7FF0F
:100648000F4A102A0800F5CF1AF01A50000AD8B439
:100658007CD0640AD8B403D00D0AD8A46AD014C0D8
:10066800D9FF15C0DAFFDECF18F0DDCF19F0020E82
:100678001426000E152219AE06D0030E1612186C99
:10068800191ED8B0192A010E1A6E050E1A18D8B4F8
:1006980012D01A50020D010EF324F66E060EF42045
:1006A800F76E0900F550185C0900F5501958D8A0E4
:1006B80002D01A2AEAD716C013F0030E1316D8B4BC
:1006C80008D00DC0D9FF0EC0DAFF2D0EDF6E0D4A1F
:1006D8000E2A1AC017F029D01750020D010EF32464
:1006E800F66E060EF420F76E0900F5CF03F00A0047
:1006F800F5CF04F018C001F019C002F0EDEC04F0D9
:1007080001C008F002C009F0000E0B6E0A0E0A6E56
:100718003FEC05F00850300F1A6E0DC0D9FF0EC01F
:10072800DAFF1AC0DFFF0D4A0E2A17061728D8A4C9
:10073800D3D70FC0F6FF10C0F7FF0F4A102A0800E2
:10074800F5CF1AF01A50D8A468D70DC0D9FF0EC03B
:10075800DAFF000EDF6E1200820E1B6EDE0EE82E30
:10076800FED71B2EFCD789688A68280E3EEC04F059
:100778009EEC05F00009D8A4FBD7060E7FEC05F027
:100788000C0E7FEC05F000F0000E316E000E366E98
:10079800000E376E000E326E000E386E000E336E8D
:1007A800928036683768FE0E386E37C001F038C060
:1007B80002F0365090EC04F0E8EC05F0D5EC05F0CA
:1007C8000009D8A4FBD7CEEC05F001C034F002C074
:1007D80035F01D0E0D6E000E0E6E130E0F6E060E0A
:1007E800106E34C011F035C012F00CEC03F01D0E81
:1007F800026E000E036EBFEC04F0020E1C6E860E35
:100808001B6E990EE82EFED71B2EFCD71C2EFAD78E
:1008180000F0280E3EEC04F09EEC05F00009D8A488
:10082800FBD7060E7FEC05F00C0E7FEC05F00B0EE7
:10083800026E060E036EBFEC04F0020E1C6E860EEE
:100848001B6E990EE82EFED71B2EFCD71C2EFAD74E
:1008580000F0280E3EEC04F09EEC05F00009D8A448
:10086800FBD7060E7FEC05F00C0E7FEC05F0E5ECEF
:1008780005F08AD7056EF00E8116F00E9316929445
:1008880092969292899489968992C6EC05F0300ED8
:100898007FEC05F0050EBBEC05F0300E7FEC05F0A3
:1008A800010EBBEC05F0320E7FEC05F09EEC05F076
:1008B8000009D8A4FBD79EEC05F00009D8A4FBD703
:1008C80005507FEC05F09EEC05F00009D8A4FBD795
:1008D800080E7FEC05F09EEC05F00009D8A4FBD7C4
:1008E8000F0E7FEC05F09EEC05F00009D8A4FBD7AD
:1008F800010E7FEC05F09EEC05F00009D8A4FBD7AB
:10090800040E7FEC05F09EEC05F00009D8A4FBD797
:10091800800E16EC05F01200056E000EC26E000E79
:10092800C06ED89001303C0BC26E01C003F0033A90
:10093800F00E0316300E031602500F0B0310C16E93
:1009480005C003F0D8900336D8900336380E031646
:1009580005C004F0043A0F0E0416070E04160550DD
:10096800800B04100310C06E01AE03D09E9C9D8CBA
:10097800F28CC280120019D09EEC05F00009D8A4B0
:10098800FBD702C0F6FF03C0F7FFF86A050EF7644D
:1009980003D00800F55005D0F6CFD9FFF7CFDAFF1E
:1009A800DF5060EC05F0024A032A02C0F6FF03C0DC
:1009B800F7FFF86A050EF76403D00800F55005D074
:1009C800F6CFD9FFF7CFDAFFDF500009D8B412000D
:1009D800D3D7000E066E000E056E03500410D8B46F
:1009E8001CD0010E076E04D0D89003360436072AAF
:1009F80004AEFAD7D890053606360350015C045089
:100A08000258D8A005D00350015E0450025A058050
:100A1800D89004320332072EEDD705C001F006C086
:100A280002F01200046EF00E9316F00E81160450B8
:100A3800016E026A018E040E036E02340232013224
:100A4800032EFBD701500F0B811289948996E0EC95
:100A580005F08982E0EC05F08992F00E81160450C9
:100A68000F0B8112E0EC05F08982E0EC05F0899229
:100A78000F0E931212000A500B10D8B418D0010EA2
:100A88000C6E04D0D8900A360B360C2A0BAEFAD767
:100A98000A50085C0B500958D8A004D00A50085EC8
:100AA8000B50095AD8900B320A320C2EF1D708C0D5
:100AB80008F009C009F01200016EF00E9316F00E4E
:100AC800811601380F0B0F0B811289868994E0EC8F
:100AD80005F08982E0EC05F08992F00E811601504C
:100AE8000F0B8112E0EC05F08982E0EC05F08992A9
:100AF8000F0E93121200016EF00E9316F00E81166F
:100B080001380F0B0F0B811289948996E0EC05F0E0
:100B18008982E0EC05F08992F00E811601500F0BE6
:100B28008112E0EC05F08982E0EC05F089920F0E65
:100B38009312120089848996E0EC05F08982E0EC32
:100B480005F081A60AD08992E0EC05F08982E0ECF4
:100B580005F089928994010E12008992E0EC05F063
:100B68008982E0EC05F089928994000E1200026EE9
:100B78000D0E016EFC0EE82EFED7012EFCD7022EBC
:100B8800F7D71200140E016E7A0EE82EFED7012E4A
:100B9800FCD71200C450036EC350016E03C002F0AC
:100BA8001200C2A202D0010E1200000E1200000EA6
:100BB800F86E0001B0EF03F0060EE82EFED700D065
:0C0BC8001200C2909D9C1200C28212001C
:020000040020DA
:08000000FFFFFFFFFFFFFFFF00
:020000040030CA
:0E000000FF01191EFF8181FF0FC00FE00F40AE
:00000001FF
