:040000002BEF04F0EE
:0B060000006A646A6431333337000085
:10060C00056EF00E8116F00E9316929492969292BD
:10061C0089948996899223EC04F0300EC2EC03F095
:10062C00050E18EC04F0300EC2EC03F0010E18ECC1
:10063C0004F0320EC2EC03F0E1EC03F00009D8A494
:10064C00FBD7E1EC03F00009D8A4FBD70550C2ECB2
:10065C0003F0E1EC03F00009D8A4FBD7080EC2ECC0
:10066C0003F0E1EC03F00009D8A4FBD70F0EC2ECA9
:10067C0003F0E1EC03F00009D8A4FBD7010EC2ECA7
:10068C0003F0E1EC03F00009D8A4FBD7040EC2EC94
:10069C0003F0E1EC03F00009D8A4FBD7800E58EC72
:1006AC0003F01200046EF00E9316F00E8116045037
:1006BC00016E026A018E040E036E023402320132A4
:1006CC00032EFBD701500F0B81128994899632ECC3
:1006DC0004F0898232EC04F08992F00E81160450F9
:1006EC000F0B811232EC04F0898232EC04F0899207
:1006FC000F0E93121200820E066EDE0EE82EFED73F
:10070C00062EFCD789688A68280E06EC03F0E1EC0B
:10071C0003F00009D8A4FBD7060EC2EC03F00C0EB4
:10072C00C2EC03F000F0010E026E060E036EFEEC3E
:10073C0003F0400E58EC03F0F6D7016EF00E931652
:10074C00F00E811601380F0B0F0B811289868994DC
:10075C0032EC04F0898232EC04F08992F00E8116AE
:10076C0001500F0B811232EC04F0898232EC04F050
:10077C0089920F0E93121200016EF00E9316F00E6A
:10078C00811601380F0B0F0B81128994899632EC6C
:10079C0004F0898232EC04F08992F00E811601503B
:1007AC000F0B811232EC04F0898232EC04F0899246
:1007BC000F0E931212008984899632EC04F0898210
:1007CC0032EC04F081A60AD0899232EC04F08982D2
:1007DC0032EC04F089928994010E1200899232EC69
:1007EC0004F0898232EC04F089928994000E120094
:1007FC000FD0E1EC03F00009D8A4FBD702C0F6FF40
:10080C0003C0F7FF0800F550A3EC03F0024A032ADB
:10081C0002C0F6FF03C0F7FF0800F5500009D8B47A
:10082C001200E7D7026E0D0E016EFC0EE82EFED7FD
:10083C00012EFCD7022EF7D71200140E016E7A0E81
:10084C00E82EFED7012EFCD71200000EF86E060E15
:10085C00F76E000181EF03F0060EE82EFED700D0F4
:02086C00120078
:020000040020DA
:08000000FFFFFFFFFFFFFFFF00
:020000040030CA
:0E000000FF01191EFF8181FF0FC00FE00F40AE
:00000001FF
