:040000004FEF15F0B9
:1006000000010000000A00000064000000E8030090
:100610000010270000A086010040420F008096983D
:100620000000E1F50500CA9A3B00803F0020410030
:10063000C842007A44401C4650C347247449971866
:100640004BBCBE4C6B6E4E03155079AD60F34971D7
:1006500000803FCDCC3DD7233C12833AB7D138C67A
:100660002737388635C0D633CC2B32708930E7DB5C
:100670002EE53C1E42A20D53484F5720414C4C20C2
:10068000444154410025732025643A25643A256489
:10069000006D656D6F72792066756C6C0053484F04
:1006A00057204441544100252E32662025730028EE
:1006B0006E756C6C29004E45585400252E3266002C
:0506C000454E4400005E
:1006C600440E596E000E5A6EB7EF07F0250E6C18E1
:1006D600D8B40AD040C0D9FF41C0DAFF6CC0DFFFF2
:1006E600404A412AB7EF07F0000E5C6E000E5B6EC3
:1006F60042C0F6FF43C0F7FF0800F5502E0AD8A403
:100706002ED05C8C424A432A000E6B6E000E6A6E37
:100716001BD06AC00FF06BC010F0000E126E0A0EEE
:10072600116EAEEC15F042C0F6FF43C0F7FF0800AD
:10073600F5500F26000E1022D00E0F246A6EFF0E03
:1007460010206B6E424A432A42C0F6FF43C0F7FFB1
:100756000800F550D3EC15F0D8A06ED0DAD7000E0D
:100766006B6E000E6A6E5C8867D05C847FD059C061
:10077600D9FF5AC0DAFFDECF57F0DDCF58F0020EB0
:100786005926000E5A2257505810D8A404D0AF0E3E
:10079600576E060E586E000E566E000E556E02D03F
:1007A600554A562A555057244C6E565058204D6E71
:1007B6004CC0F6FF4DC0F7FFF86A050EF76403D08C
:1007C6000800F55005D0F6CFE9FFF7CFEAFFEF5066
:1007D6000009D8A4E5D76A506B10D8B424D0555078
:1007E6006A5C56506B58D8B01ED06AC055F06BC0C4
:1007F60056F019D057C0F6FF58C0F7FFF86A40C048
:10080600D9FF41C0DAFF050EF76403D00800F550A2
:1008160005D0F6CFE9FFF7CFEAFFEF50DF6E574A74
:10082600582A404A412A5506D8A056065528E2E1DC
:100836005628D8B499D3DED742C0F6FF43C0F7FF97
:10084600424A432A0800F5CF6CF06C50000AD8B42F
:1008560098D3640AD8B40AD0020AD8B486D70F0A45
:10086600D8B404D01A0AD8B482D77ED3070E5C1443
:10087600D8B4B9D25CA804D0000E6B6E060E6A6EB0
:1008860059C0D9FF5AC0DAFFDECF67F0DECF68F075
:10089600DDCF69F0030E5926000E5A2269AE10D03C
:1008A60067C001F068C002F069C003F0C1EC15F042
:1008B60001C067F002C068F003C069F0030E5B1266
:1008C600000E5E6E000E5D6E675068106910D8B43B
:1008D60083D0820E4C6EFF0E4D6E67C04EF068C020
:1008E6004FF069C050F06AC051F0100E05D0D89094
:1008F600513250324F324E32E82EF9D74E504C24F8
:100906005D6E000E4D205E6E5D06D8A05E065DC073
:100916000FF05EC010F0000E126E030E116EAEECFC
:1009260015F00FC05DF010C05EF05DC007F05EC050
:1009360008F0000E0A6E0A0E096E34EC11F007C0BC
:100946005DF008C05EF05EAE03D05D06D8A05E0620
:100956005D500008CBEC07F024C05FF025C060F0C6
:1009660026C061F05FC015F060C016F061C017F0D8
:1009760067C018F068C019F069C01AF030EC0EF0C4
:1009860015C05FF016C060F017C061F05FC001F0DF
:1009960060C002F061C003F0000E046E800E056EAA
:1009A6003F0E066EECEC10F0D8B004D05D06D8A071
:1009B6005E0612D05FC001F060C002F061C003F0B5
:1009C600000E046E200E056E410E066EECEC10F065
:1009D600D8A002D05D4A5E2A6BBE06D06B501BE1E2
:1009E6000D0E6A5CD8B017D067C02EF068C02FF025
:1009F60069C030F06A50CFEC09F024C031F025C050
:100A060032F026C033F0F8EC0AF02EC067F02FC0A3
:100A160068F030C069F05EBE06D05E501EE10A0E78
:100A26005D5CD8B01AD0675068106910D8B451D040
:100A360067C02BF068C02CF069C02DF0B6EC0DF045
:100A46002B502C102D102E10D8B45EBE42D05E5006
:100A560004E1020E5D5CD8A03CD05FC001F060C02E
:100A660002F061C003F0700E046E890E056E400E32
:100A7600066EECEC10F0D8B002D0F70E01D0F80EEE
:100A86005D26FF0E5E225D50CBEC07F024C05FF0C2
:100A960025C060F026C061F067C001F068C002F0B2
:100AA60069C003F05FC004F060C005F061C006F0E5
:100AB60089EC0CF001C063F002C064F003C065F07D
:100AC60004C066F0000E676E000E686E000E696E5A
:100AD60032D067C02BF068C02CF069C02DF0B6ECA0
:100AE6000DF02BC063F02CC064F02DC065F02EC055
:100AF60066F067C03AF068C03BF069C03CF063C07E
:100B060009F064C00AF065C00BF066C00CF05FEC3B
:100B160013F009C03DF00AC03EF00BC03FF07CEC7C
:100B260014F03AC067F03BC068F03CC069F0000EB4
:100B36005E6E000E5D6E010E6C6E0A0E6C18D8B4F9
:100B460018D06C50040D010EF324F66E060EF42038
:100B5600F76E0900F550635C0900F550645809000A
:100B6600F55065580900F5506658D8A002D06C2A91
:100B7600E4D7030E5B144C6E000E5C144D6E4C50A5
:100B86004D10D8B44FD040C0D9FF41C0DAFF2D0E6A
:100B960046D063C001F064C002F065C003F066C0D1
:100BA60004F06C50040D010EF324F66E060EF420CC
:100BB600F76E0900F5CF05F00900F5CF06F009003C
:100BC600F5CF07F00A00F5CF08F076EC11F001C07A
:100BD6005FF002C060F003C061F004C062F05FC065
:100BE6000EF060C00FF061C010F062C011F00A0E86
:100BF600126E000E136E000E146E000E156E9CEC37
:100C060012F00EC05FF00FC060F010C061F011C0AE
:100C160062F05F50300F40C0D9FF41C0DAFFDF6E8F
:100C2600404A412A6C066C28D8B40CD0B2D740C0D2
:100C3600D9FF41C0DAFF300EDF6E404A412A5D0619
:100C4600D8A05E065EBE05D05E50F1E15D04D8B068
:100C5600EED76BBE09D06B5004E1090E6A5CD8A0D2
:100C660003D0080E6C6E02D06AC06CF06C506A5EDF
:100C7600000E6CBEFF0E6B5A6C50D8B408D040C044
:100C8600D9FF41C0DAFF2E0EDF6E404A412A6C5072
:100C9600CBEC07F024C052F025C053F026C054F028
:100CA60067C018F068C019F069C01AF052C015F094
:100CB60053C016F054C017F030EC0EF015C02BF0F0
:100CC60016C02CF017C02DF0B6EC0DF02BC063F05B
:100CD6002CC064F02DC065F02EC066F06FD063C0E6
:100CE60001F064C002F065C003F066C004F06C5009
:100CF600040D010EF324F66E060EF420F76E0900BD
:100D0600F5CF05F00900F5CF06F00900F5CF07F09D
:100D16000A00F5CF08F076EC11F001C05FF002C0D2
:100D260060F003C061F004C062F05FC00EF060C006
:100D36000FF061C010F062C011F00A0E126E000EC4
:100D4600136E000E146E000E156E9CEC12F00EC0A3
:100D56005FF00FC060F010C061F011C062F05F502C
:100D6600300F40C0D9FF41C0DAFFDF6E404A412A4A
:100D760063C00EF064C00FF065C010F066C011F0DD
:100D86006C50040D010EF324F66E060EF420F76E79
:100D96000900F5CF12F00900F5CF13F00900F5CFE1
:100DA60014F00A00F5CF15F09CEC12F00EC063F0BB
:100DB6000FC064F010C065F011C066F06C066C28B8
:100DC600D8B40CD08CD740C0D9FF41C0DAFF300E62
:100DD600DF6E404A412A6A06D8A06B066A506B103D
:100DE600D8B4C2D0F0D759C0D9FF5AC0DAFFDECF87
:100DF60063F0DDCF64F0000E64BEFF0E656E666EB6
:100E0600020E5926000E5A2266AE0AD0030E5B1257
:100E1600661E651E641E636C000E642265226622D1
:100E26006A506B10D8A408D0635064106510661021
:100E3600D8A402D06A4A6B2A010E6C6E0A0E6C1890
:100E4600D8B418D06C50040D010EF324F66E060EBD
:100E5600F420F76E0900F550635C0900F5506458FC
:100E66000900F55065580900F5506658D8A002D01B
:100E76006C2AE4D7800E6CBE7F0E4C6E6A506C5C9A
:100E86006B50800A4C58D8B003D06AC06CF010D0B2
:100E96006B50800A4C6E6C506A5C800E6CBE7F0E86
:100EA6004C58D8B005D06C506A6E6B6A6ABE6B0639
:100EB600030E5B144C6E000E5C144D6E4C504D10C0
:100EC600D8B44AD040C0D9FF41C0DAFF2D0EDF6E3C
:100ED60041D06AC04CF06BC04DF0D8904C364D36C0
:100EE600D8904C364D36010E4C24F66E060E4D202B
:100EF600F76E0900F5CF05F00900F5CF06F00900F9
:100F0600F5CF07F00A00F5CF08F063C001F064C022
:100F160002F065C003F066C004F076EC11F001C083
:100F26000EF002C00FF003C010F004C011F00A0E5C
:100F3600126E000E136E000E146E000E156E9CECF3
:100F460012F00E50300F6C6E40C0D9FF41C0DAFF70
:100F56006CC0DFFF404A412A6A06D8A06B066A28A1
:100F6600B8E16B28D8A4B5D742C0F6FF43C0F7FF57
:100F7600424A432A0800F5CF6CF06C50D8A469EFBA
:100F860003F040C0D9FF41C0DAFF000EDF6E120049
:100F96002A6E2AAE01D12A6C2A50800A120FD8A0D6
:100FA60091D0000E126E030E116E000E0A6E0A0E1E
:100FB600096E000E046E640E036E2A50016E026AFC
:100FC60001BE020664EC12F001C007F002C008F090
:100FD60034EC11F0090E07240F6E000E0820106E77
:100FE600AEEC15F0500E0F24F66E060E1020F76EBE
:100FF6000900F5CF18F00900F5CF19F00A00F5CF72
:101006001AF0000E0A6E640E096E2A50076E086A00
:1010160007BE080634EC11F0120E07240F6E000E00
:101026000820106E000E126E030E116EAEEC15F057
:10103600500E0F24F66E060E1020F76E0900F5CF3F
:1010460015F00900F5CF16F00A00F5CF17F030ECD1
:101056000EF015C027F016C028F017C029F027C0DB
:1010660015F028C016F029C017F0000E126E030EF8
:10107600116E000E046E0A0E036E2A50016E026A8D
:1010860001BE020664EC12F001C00FF002C010F0BF
:10109600AEEC15F0500E0F24F66E060E1020F76E0D
:1010A6000900F5CF18F00900F5CF19F00A00F5CFC1
:1010B6001AF030EC0EF015C024F016C025F017C05B
:1010C60026F012002A50800A750FD8A053D0000EC1
:1010D6000A6E0A0E096E2A50076E086A07BE0806CF
:1010E60034EC11F0090E07240F6E000E0820106E66
:1010F600000E126E030E116EAEEC15F0500E0F249C
:10110600F66E060E1020F76E0900F5CF15F00900F1
:10111600F5CF16F00A00F5CF17F0000E126E030E8B
:10112600116E000E046E0A0E036E2A50016E026ADC
:1011360001BE020664EC12F001C00FF002C010F00E
:10114600AEEC15F0500E0F24F66E060E1020F76E5C
:101156000900F5CF18F00900F5CF19F00A00F5CF10
:101166001AF030EC0EF015C024F016C025F017C0AA
:1011760026F012002A50030D500EF324F66E060ECA
:10118600F420F76E0900F5CF24F00900F5CF25F01D
:101196000A00F5CF26F012002A50800A120FD8A0B6
:1011A60091D0000E126E030E116E000E0A6E0A0E1C
:1011B600096E000E046E640E036E2A50016E026AFA
:1011C60001BE020664EC12F001C007F002C008F08E
:1011D60034EC11F0090E07240F6E000E0820106E75
:1011E600AEEC15F0290E0F24F66E060E1020F76EE3
:1011F6000900F5CF18F00900F5CF19F00A00F5CF70
:101206001AF0000E0A6E640E096E2A50076E086AFE
:1012160007BE080634EC11F0120E07240F6E000EFE
:101226000820106E000E126E030E116EAEEC15F055
:10123600290E0F24F66E060E1020F76E0900F5CF64
:1012460015F00900F5CF16F00A00F5CF17F030ECCF
:101256000EF015C027F016C028F017C029F027C0D9
:1012660015F028C016F029C017F0000E126E030EF6
:10127600116E000E046E0A0E036E2A50016E026A8B
:1012860001BE020664EC12F001C00FF002C010F0BD
:10129600AEEC15F0290E0F24F66E060E1020F76E32
:1012A6000900F5CF18F00900F5CF19F00A00F5CFBF
:1012B6001AF030EC0EF015C024F016C025F017C059
:1012C60026F012002A50800A750FD8A053D0000EBF
:1012D6000A6E0A0E096E2A50076E086A07BE0806CD
:1012E60034EC11F0090E07240F6E000E0820106E64
:1012F600000E126E030E116EAEEC15F0290E0F24C1
:10130600F66E060E1020F76E0900F5CF15F00900EF
:10131600F5CF16F00A00F5CF17F0000E126E030E89
:10132600116E000E046E0A0E036E2A50016E026ADA
:1013360001BE020664EC12F001C00FF002C010F00C
:10134600AEEC15F0290E0F24F66E060E1020F76E81
:101356000900F5CF18F00900F5CF19F00A00F5CF0E
:101366001AF030EC0EF015C024F016C025F017C0A8
:1013760026F012002A50030D290EF324F66E060EEF
:10138600F420F76E0900F5CF24F00900F5CF25F01B
:101396000A00F5CF26F012002D6E6D0E2D649FD03B
:1013A600000E126E030E116E000E0A6E0A0E096E04
:1013B600000E046E640E036E2DC001F0026A64EC2A
:1013C60012F001C007F002C008F034EC11F0090E6B
:1013D60007240F6E000E0820106EAEEC15F0500EAE
:1013E6000F24F66E060E1020F76E0900F5CF18F0E2
:1013F6000900F5CF19F00A00F5CF1AF0000E0A6EB3
:10140600640E096E2DC007F0086A34EC11F0120E56
:1014160007240F6E000E0820106E000E126E030ECB
:10142600116EAEEC15F0500E0F24F66E060E10205F
:10143600F76E0900F5CF15F00900F5CF16F00A0092
:10144600F5CF17F030EC0EF015C02AF016C02BF0D1
:1014560017C02CF0000E126E030E116E000E046EF5
:101466000A0E036E2DC001F0026A64EC12F001C090
:101476000FF002C010F0AEEC15F0500E0F24F66E11
:10148600060E1020F76E0900F5CF18F00900F5CF0B
:1014960019F00A00F5CF1AF02AC015F02BC016F085
:1014A6002CC017F030EC0EF015C027F016C028F04F
:1014B60017C029F027C015F028C016F029C017F06C
:1014C600000E186E000E196E3F0E1A6E30EC0EF0FE
:1014D60015C024F016C025F017C026F012000A0E1B
:1014E6002D6463D0000E126E030E116E000E046E94
:1014F6000A0E036E2DC001F0026A64EC12F001C000
:101506000FF002C010F0AEEC15F0500E0F24F66E80
:10151600060E1020F76E0900F5CF18F00900F5CF7A
:1015260019F00A00F5CF1AF0000E0A6E0A0E096EBF
:101536002DC007F0086A34EC11F0090E07240F6E6F
:10154600000E0820106E000E126E030E116EAEEC29
:1015560015F0500E0F24F66E060E1020F76E0900D9
:10156600F5CF15F00900F5CF16F00A00F5CF17F004
:1015760030EC0EF015C02AF016C02BF017C02CF078
:101586002AC015F02BC016F02CC017F0000E186EEE
:10159600000E196E3F0E1A6E30EC0EF015C024F0D8
:1015A60016C025F017C026F012002D50030D500E60
:1015B600F324F66E060EF420F76E0900F5CF15F04B
:1015C6000900F5CF16F00A00F5CF17F0000E186ED9
:1015D600000E196E3F0E1A6E30EC0EF015C024F098
:1015E60016C025F017C026F0120030C034F0356A58
:1015F600366A2F34343601E335803450396E33C0C1
:1016060034F0356A366A3234343601E33580345084
:10161600386E3950D8B40BD03850395CD8B00ED0AB
:10162600395000083824346E180E346407D031C09F
:101636002EF032C02FF033C030F012003850D8B43C
:101646000BD03950385CD8B00ED038500008392449
:10165600346E180E346407D02EC02EF02FC02FF033
:1016660030C030F01200060E376E30BE378E33BEF5
:10167600378C2F8EFF0E2E16FF0E2F16000E3016ED
:10168600328EFF0E3116FF0E3216000E331638500C
:10169600395CD8B01BD0D89031363236333638065E
:1016A60039503818D8B40DD0370637C034F0070E85
:1016B6003416D8B406D0EFD7D89030322F322E3227
:1016C600392A38503918D8B41FD0F6D73950385C73
:1016D600D8B01AD0D8902E362F3630363906395033
:1016E6003818D8B40DD0370637C034F0070E341684
:1016F600D8B406D0EFD7D890333232323132382AC6
:1017060038503918D8A4F7D737AE0CD0FF0E2E1A9A
:10171600FF0E2F1AFF0E301A010E2E26000E2F2254
:10172600000E302237AC0CD0FF0E311AFF0E321AE3
:10173600FF0E331A010E3126000E3222000E33221E
:10174600000E376E2E5031262F5032223050332263
:1017560033AE0ED0FF0E311AFF0E321AFF0E331AB9
:10176600010E3126000E3222000E3322010E376E94
:1017760031C001F032C002F033C003F039C004F0CA
:1017860037C005F043EC10F001C02EF002C02FF078
:1017960003C030F0120089688A689468270EC86E04
:1017A6006AEC15F09AEC15F0800E016E080EF1EC5D
:1017B60015F09E800001A62B090EA6650FD0A52B5D
:1017C600000EA66F3B0EA56509D0A42B000EA56FD3
:1017D6003B0EA46503D0A32B000EA46FE2EC15F01C
:1017E600CFEC12F0820E406E000E416E880E426EF5
:1017F600060E436EA3C044F0456AA4C046F0476A8D
:10180600A5C048F0496A63EC03F0960E406E000EE0
:10181600416EA70E426E060E436EAFC044F0B0C0D6
:1018260045F0B1C046F0820E476E000E486E63EC7E
:1018360003F0960E026E000E036E8DEC13F01E0E74
:101846000001A519D8B403D0A551D8A429D0A6055E
:10185600D8A426D0B5C001F0B6C002F0B7C003F0D8
:10186600AFC004F0B0C005F0B1C006F0ECEC10F06B
:10187600D8A010D0AFC001F0B0C002F0B1C003F0E4
:10188600B2C004F0B3C005F0B4C006F0ECEC10F042
:10189600D8B006D059EC14F059EC14F059EC14F009
:1018A6000001A4B186D7A551D8A483D7A605D8A48C
:1018B60080D7A3C0A0F0A4C0A1F0A5C0A2F0AF0E2F
:1018C6000F6E000E106EA00E116E000E126E9CECC6
:1018D60014F010AE0FD0E2EC15F0910E026E060E6B
:1018E600036E8DEC13F0820E7F6EDE0EE82EFED7B1
:1018F6007F2EFCD7820E7F6EDE0EE82EFED77F2E61
:10190600FCD7E9EC0FF0B7EC11F053D703C007F0A2
:10191600086A096A0234073601E3088007500F6E29
:101926000F50D8A409D0000E016E000E026E000EF4
:10193600036E000E046E120006C007F0086A096AFC
:101946000534073601E3088007500E6E0E50D8A402
:1019560009D0000E016E000E026E000E036E000E20
:10196600046E1200028EFF0E0116FF0E0216000E06
:101976000316058EFF0E0416FF0E0516000E06163C
:10198600000E0A6E000E0B6E000E0C6E000E0D6E33
:101996007F0E0F5E0E50980F0F5E180E0E6ED890CB
:1019A6000A360B360C360D360450015C05500258CB
:1019B60006500358D8A007D00450015E0550025ABD
:1019C6000650035A0A80D8900136023603360E2E88
:1019D600E6D70FAE16D00F50800A970FD8B009D0B1
:1019E600000E016E000E026E000E036E000E046EF7
:1019F6001200D8900D320C320B320A320F3EF9D754
:101A060015D0170E0F640FD0000E016E000E026E79
:101A1600000E036E000E046E1200D8900A360B36C6
:101A26000C360D360F060F50D8A4F7D70AC001F0B2
:101A36000BC002F00CC003F00DC004F0120003341A
:101A460004340C6E0C50D8A409D0000E016E000EA2
:101A5600026E000E036E000E046E1200063407348A
:101A66000B6E0B50D8A409D0000E016E000E026E4C
:101A7600000E036E000E046E1200038EFF0E01169A
:101A8600FF0E0216FF0E0316000E0416068EFF0E3C
:101A96000416FF0E0516FF0E0616000E0716000E9C
:101AA600076E000E086E000E096E000E0A6E7F0E9F
:101AB6000C5E0B50A00F0C5E200E0B6ED8900736F6
:101AC600083609360A360450015C0550025806509D
:101AD600035807500458D8A009D00450015E055099
:101AE600025A0650035A0750045A0780D890013606
:101AF6000236033604360B2EE1D70CAE16D00C5048
:101B0600800A9F0FD8B009D0000E016E000E026E3B
:101B1600000E036E000E046E1200D8900A320932CF
:101B2600083207320C3EF9D715D01F0E0C640FD0C1
:101B3600000E016E000E026E000E036E000E046EA5
:101B46001200D8900736083609360A360C060C50AD
:101B5600D8A4F7D707C001F008C002F009C003F007
:101B66000AC004F012002DC02FF0306A316A2C34FE
:101B76002F3601E330802F50396E3950D8A409D062
:101B8600000E2B6E000E2C6E000E2D6E000E2E6EAD
:101B96001200170E2F6E2BC030F02CC031F02DC066
:101BA60032F02F28336E04D0D890323231323032B0
:101BB600332EFAD73050346E2C8EFF0E2B16FF0EB6
:101BC6002C16000E2D162B50356E2C50366E2D50C1
:101BD600376E386A8E0E395E39AE16D03950800AA5
:101BE6008F0FD8B009D0000E2B6E000E2C6E000E93
:101BF6002D6E000E2E6E1200D890383237323632E5
:101C06003532393EF9D715D0170E39640FD0000E8C
:101C16002B6E000E2C6E000E2D6E000E2E6E120018
:101C2600D890353636363736383639063950D8A450
:101C3600F7D73450D8B408D0381E371E361E356C48
:101C4600000E36223722382235C02BF036C02CF053
:101C560037C02DF038C02EF0120017C01BF01C6ADA
:101C66001D6A16341B3601E31C801B501E6E1E5067
:101C7600D8A407D0000E156E000E166E000E176E55
:101C860012001AC01BF01C6A1D6A19341B3601E3C8
:101C96001C801B50236E2350D8A407D0000E156E4F
:101CA600000E166E000E176E120023507B0F1E26B6
:101CB60017C023F01A50231A800E2316168E198E7B
:101CC600FF0E1816FF0E1916000E1A16000E1F6EBE
:101CD600000E206E000E216E070E226E15A006D095
:101CE60018501F26195020221A502122D890173238
:101CF60016321532D890183619361A36222EEED7E5
:101D0600090E226E15A006D018501F261950202243
:101D16001A502122D890173216321532D890213215
:101D260020321F32222EEED71FC001F020C002F053
:101D360021C003F01EC004F023C005F043EC10F0F0
:101D460001C015F002C016F003C017F0120026C03D
:101D56002AF02B6A2C6A25342A3601E32B802A5076
:101D6600316E3150D8A407D0000E246E000E256EB9
:101D7600000E266E120029C02AF02B6A2C6A28341F
:101D86002A3601E32B802A50326E3250D8A407D06F
:101D9600000E246E000E256E000E266E1200000E3A
:101DA6002E6E000E2F6E000E306E3250890F315E91
:101DB60026C032F02950321A800E3216258EFF0EBA
:101DC6002416FF0E2516000E2616288EFF0E271641
:101DD600FF0E2816000E2916180E2D6ED8902E36D8
:101DE6002F3630362750245C28502558295026583F
:101DF600D8A007D02750245E2850255A2950265AA5
:101E06002E80D8902436253626362D2EE7D72EC09E
:101E160001F02FC002F030C003F031C004F032C030
:101E260005F043EC10F001C024F002C025F003C019
:101E360026F01200000E7E6E000E7D6E7EBE06D06F
:101E46007E5015E1030E7D5CD8B011D0A90E7D241D
:101E5600D96E000E7E20DA6E740E7D24E16E000EC1
:101E66007E20E26EDFCFE7FF7D4A7E2AE7D7770E38
:101E7600406E000E416EBB0E426E060E436E74C07F
:101E860044F075C045F076C046F063EC03F07EBEC4
:101E960006D07E5021E1060E7D5CD8B01DD0A90E7D
:101EA6007D24D96E000E7E20DA6EFD0E6D6EFF0E5D
:101EB6006E6E7DC06FF07EC070F06D506F266E50F6
:101EC6007022710E6F24E16E000E7020E26EDFCF7D
:101ED600E7FF7D4A7E2ADBD7E2EC15F07A0E406EEC
:101EE600000E416E850E426E060E436E770E446EF0
:101EF600000E456E71C046F0476A72C048F0496AE6
:101F060073C04AF04B6A63EC03F07A0E026E000E61
:101F1600036E8DEC13F01200000E0E6E000E0D6EA9
:101F260013D0A7C004F0A8C005F008C0D9FF09C0A7
:101F3600DAFFDF50066EA00EE4EC13F00001A82BCA
:101F46000D4A0E2A084A092A0001A829D8B40AD03F
:101F56000A500D5C0E50800A0C6E0B50800A0C580D
:101F6600D8A0DFD70A500D1804E10B500E18D8B4CC
:101F760028D0000EA86FA729D8B420D0A72B13D03D
:101F8600A7C004F0A8C005F008C0D9FF09C0DAFF51
:101F9600DF50066EA00EE4EC13F00001A82B0D4AEC
:101FA6000E2A084A092A0A500D5C0E50800A0C6E49
:101FB6000B50800A0C58D8B004D0E2D708680968DC
:101FC6001200000E096E000E086E1200BCC010F062
:101FD600BDC011F0A8C00EF00F6AA7C00CF00D6AC4
:101FE60006D01006D8A011060E06D8A00F060FBE02
:101FF6000CD00F5003E10E04D8A007D011BE05D0B7
:102006001150EFE11004D8B0ECD711BE21D0115019
:1020160003E11004D8A01CD0000E0F6E0E680DBE92
:1020260014D00D5003E10C04D8A00FD00C06D8A094
:102036000D0603D00E06D8A00F0611BE09D011500A
:10204600F9E11004D8A004D0F5D70A680B6812008D
:102056000CC004F00EC005F0A90E066E000E076E49
:10206600BCC008F0A00EF3EC11F00009D8A405D00E
:10207600000E0B6E000E0A6E12000A680B68120044
:102086000450D8B405D0015002100310D8A40CD0C7
:10209600000E016E000E026E000E036E1200042A80
:1020A600D890033202320132000E0114066E000E81
:1020B6000214076EFE0E0314086E06500710081071
:1020C600D8B40CD0ECD7042A010E0126000E022249
:1020D600000E0322D890033202320132000E0114A0
:1020E600066E000E0214076EFF0E0314086E0650ED
:1020F60007100810D8B406D0E6D70406D8900136E3
:102106000236033602BE03D0020E0460F6D704A0E0
:10211600029ED8900432045003120550D8A4038EB0
:1021260001C001F002C002F003C003F01200056E08
:10213600F00E8116F00E93169294929692928994CE
:102146008996899234EC16F0300EDAEC14F0050E0E
:102156000EEC16F0300EDAEC14F0010E0EEC16F062
:10216600320EDAEC14F0F9EC14F00009D8A4FBD71F
:10217600F9EC14F00009D8A4FBD70550DAEC14F0FA
:10218600F9EC14F00009D8A4FBD7080EDAEC14F029
:10219600F9EC14F00009D8A4FBD70F0EDAEC14F012
:1021A600F9EC14F00009D8A4FBD7010EDAEC14F010
:1021B600F9EC14F00009D8A4FBD7040EDAEC14F0FD
:1021C600F9EC14F00009D8A4FBD7800EBBEC13F091
:1021D600120003AE16D001C007F002C008F003C01B
:1021E60009F0071E081E091E072A000E08220922EA
:1021F600000E0724016E000E0820026E800E0920D4
:10220600036E06AE16D004C007F005C008F006C07F
:1022160009F0071E081E091E072A000E08220922B9
:10222600000E0724046E000E0820056E800E09209D
:10223600066E000E011A000E021A800E031A000E18
:10224600041A000E051A800E061A0450015C055089
:10225600025806500358D8B002D0D8901200D88041
:102266001200000E0C6E0AAE06D0096C0A1ED8B01B
:102276000A2A010E0C6E08AE06D0076C081ED8B0EE
:10228600082A010E0C1A000E0E6E000E0D6E095075
:102296000A10D8B41CD0010E0B6E04D0D8900936A3
:1022A6000A360B2A0AAEFAD7D8900D360E360950E2
:1022B600075C0A500858D8A005D00950075E0A5096
:1022C600085A0D80D8900A3209320B2EEDD70C50E1
:1022D600D8B404D00D6C0E1ED8B00E2A0DC007F06F
:1022E6000EC008F01200000E096E000E0A6E000EF7
:1022F6000B6E000E0C6E0550061007100810D8B4B1
:102306002AD0010E0D6E06D0D89005360636073651
:1023160008360D2A08AEF8D7D89009360A360B3695
:102326000C360550015C06500258075003580850F9
:102336000458D8A009D00550015E0650025A07502D
:10234600035A0850045A0980D890083207320632D8
:1023560005320D2EE1D709C001F00AC002F00BC00C
:1023660003F00CC004F01200E2EC15F09D0E026EB4
:10237600060E036E8DEC13F00B0E0001816F260E18
:10238600806F5D0EE82EFED7802FFCD7812FFAD7FF
:1023960000D0E2EC15F01DEC0FF0060E0001816F87
:1023A600130E806FAD0EE82EFED7802FFCD7812F3F
:1023B600FAD700D0E2EC15F0C00E026E060E036EE0
:1023C6008DEC13F0060E0001816F130E806FAD0EBB
:1023D600E82EFED7802FFCD7812FFAD700D0120027
:1023E600096E19EC16F0C580C5B0FED7C5B0FED78C
:1023F600095001EC13F019EC16F0045001EC13F03F
:1024060019EC16F0C5B2FED7055001EC13F019EC25
:1024160016F0C582C5B2FED7C5B2FED7095001096E
:1024260001EC13F019EC16F006C001F007C002F03B
:1024360008C003F00CEC14F0C58AC588C5B8FED7F1
:10244600C5B8FED7C584C5B4FED7C5B4FED7000E41
:102456001200036E19EC16F0C580C5B0FED7C5B0E4
:10246600FED7A1A602D0FF0E1200035001EC13F016
:10247600FF0AD8A419D0C584C5B4FED7FD0E120034
:10248600C582C5B2FED7C5B2FED7A1A602D0FF0E41
:102496001200035001EC13F0FF0AD8A405D0C5843E
:1024A600C5B4FED7FD0E1200C5BCEAD7C584C5B4B7
:1024B600FED7C5B4FED7A1A602D0FF0E1200000EAD
:1024C6001200000E066E02AE06D0016C021ED8B0D7
:1024D600022A010E066E04AE04D0036C041ED8B0A8
:1024E600042A03500410D8B418D0010E056E04D087
:1024F600D89003360436052A04AEFAD70350015C99
:1025060004500258D8A004D00350015E0450025A69
:10251600D89004320332052EF1D70650D8B404D031
:10252600016C021ED8B0022A01C001F002C002F0FE
:1025360012001250131014101510D8B424D0010E26
:10254600166E06D0D8901236133614361536162A5D
:1025560015AEF8D712500E5C13500F581450105881
:1025660015501158D8A008D012500E5E13500F5AAD
:102576001450105A1550115AD8901532143213327D
:102586001232162EE7D70EC00EF00FC00FF010C095
:1025960010F011C011F0120057EC16F049EC16F0CD
:1025A6000009D8A4FBD7000E186EC80E196E420E8D
:1025B6001A6E3CEC16F001C009F002C00AF033ECCA
:1025C60015F009C015F00AC016F00BC017F030EC74
:1025D6000EF015C024F016C025F017C026F0000E28
:1025E600276E7F0E286E430E296EAAEC0EF024C0CD
:1025F600AFF025C0B0F026C0B1F01200026E02C0E6
:10260600C9FFC6AE02D0FF0E1200C6500F0B080A55
:10261600D8B40FD0C6500F0B0B0AD8B40AD0C68850
:102626009EA6FED7C7A4C7B002D0FE0E1200000EAB
:102636001200C6500F0B080AD8B405D0C6500F0BAF
:102646000B0AD8A41200C7B0FED719EC16F0C5AC19
:1026560002D0FE0E1200000E1200056E000EC26EB3
:10266600000EC06ED89001303C0BC26E01C003F064
:10267600033AF00E0316300E031602500F0B03102A
:10268600C16E05C003F0D8900336D8900336380ED5
:10269600031605C004F0043A0F0E0416070E0416BE
:1026A6000550800B04100310C06E01AE03D09E9C33
:1026B6009D8CF28CC28012008E0E116E06D0D890C0
:1026C6000C320B320A320932112A000E09140D6E31
:1026D600000E0A140E6E000E0B140F6EFF0E0C1475
:1026E600106E0D500E100F101010D8A4E8D709C0A8
:1026F60001F00AC002F00BC003F011C004F0000E96
:10270600056E43EC10F001C009F002C00AF003C0E8
:102716000BF0120019D0F9EC14F00009D8A4FBD77D
:1027260002C0F6FF03C0F7FFF86A050EF76403D090
:102736000800F55005D0F6CFE9FFF7CFEAFFEF50D6
:10274600BBEC14F0024A032A02C0F6FF03C0F7FFEF
:10275600F86A050EF76403D00800F55005D0F6CFE9
:10276600E9FFF7CFEAFFEF500009D8B41200D3D73C
:10277600046EF00E9316F00E81160450016E026A76
:10278600018E040E036E023402320132032EFBD791
:1027960001500F0B8112899489964FEC16F08982AD
:1027A6004FEC16F08992F00E811604500F0B811231
:1027B6004FEC16F089824FEC16F089920F0E9312A9
:1027C6001200076E19EC16F0C580C5B0FED7C5B06D
:1027D600FED7075001EC13F019EC16F0045001EC8B
:1027E60013F019EC16F0055001EC13F019EC16F085
:1027F600065001EC13F019EC16F0C584C5B4FED7EB
:10280600C5B4FED707502CEC12F00009D8B412005C
:10281600F9D720D000EC16F001C0D9FF02C0DAFFCC
:10282600DF6E014A022AC5B6FED7A1A602D0FF0E68
:102836001200C6500F0B080AD8B405D0C6500F0BAD
:102846000B0AD8A407D00350D8B404D0C59AC588BB
:10285600C5B8FED703060328D8A4DCD7000E12009D
:10286600026E3F0E0212FC0E0112BD50C009021488
:10287600BD6EBD500F090114BD6E3F0E0218D8A4DF
:1028860002D094941200BF0E0218D8A403D09494D8
:10289600959A12007F0E0218D8B403D00228D8A445
:1028A60012009494959A959C959E1200D30E2BEC4B
:1028B60016F0610E026EA80E016E16EC15F0FC0EF7
:1028C600016E3F0E33EC14F0060E086E130E076E03
:1028D600AE0EE82EFED7072EFCD7082EFAD754ECFC
:1028E60016F0820E076EDE0EE82EFED7072EFCD7F8
:1028F60012003D503E103F10D8B406D0000E3D1ACF
:10290600000E3E1A800E3F1A3AC02EF03BC02FF042
:102916003CC030F03DC031F03EC032F03FC033F035
:10292600F8EC0AF02EC03AF02FC03BF030C03CF075
:1029360012000FC008F010C009F0BAC00AF0BBC000
:102946000BF08FEC0FF008C013F009C014F011C0A3
:1029560008F012C009F0B8C00AF0B9C00BF08FEC4D
:102966000FF0085013240F6E09501420106E120039
:10297600016EF00E9316F00E811601380F0B0F0B39
:102986008112898689944FEC16F089824FEC16F0F5
:102996008992F00E811601500F0B81124FEC16F042
:1029A60089824FEC16F089920F0E93121200016E77
:1029B600F00E9316F00E811601380F0B0F0B8112D5
:1029C600899489964FEC16F089824FEC16F089921D
:1029D600F00E811601500F0B81124FEC16F0898212
:1029E6004FEC16F089920F0E931212008984899685
:1029F6004FEC16F089824FEC16F081A60AD0899228
:102A06004FEC16F089824FEC16F089928994010EEC
:102A1600120089924FEC16F089824FEC16F08992DB
:102A26008994000E120001C003F002C004F0060EE5
:102A3600D89003360436E82EFBD703C005F004C051
:102A460006F006C0BEFF05C003F0D8900332D8904A
:102A56000332300E0316BD50CF0B0310BD6E1200AD
:102A6600000E0C6E0AAE06D0096C0A1ED8B00A2AF1
:102A7600010E0C6E09C001F00AC002F0036A8E0E48
:102A8600046E0CC005F043EC10F001C009F002C062
:102A96000AF003C00BF01200860EF66E2C0EF76ECF
:102AA600000EF86E00EEB2F010EE0CF00900F5CF55
:102AB600EEFFE550E150FAE100EEA3F00F0EEE6AEC
:102AC600E806FDE1000EF86E0001CEEF0BF0000EF9
:102AD600066E000E096E000E0A6E000E076E000EE0
:102AE6000B6E000E086E9280C50E096E040E0A6EFD
:102AF600FE0E0B6E0AC001F00BC002F0095030EC5E
:102B060013F01200016E01507E0BCD6E01AC02D0A7
:102B1600CD8E01D0CD9E000ECF6E000ECE6E9E9055
:102B260001AE02D09D8001D09D90CD801200000E96
:102B3600086E000E056E000E076E000E066EDF0EA6
:102B4600086E085085EC15F006C001F007C002F0CB
:102B560022EC16F012000F501102F3CF13F0F4CF4F
:102B660014F00F501202F350142610501102F350B5
:102B7600142613C00FF014C010F0120001500210FA
:102B86000310D8B406D0000E011A000E021A800EE9
:102B9600031A01C001F002C002F003C003F01200E4
:102BA600036E000E026E3A0E036005D02F0E03640C
:102BB60002D0010E026E02C001F001301200280E92
:102BC6009AEC10F0F9EC14F00009D8A4FBD7060E25
:102BD600DAEC14F00C0EDAEC14F01200026E3F0E72
:102BE600C716000EC66E000EC56E0250C612015004
:102BF600C71294869488C68A1200C6500F0B080A1C
:102C0600D8B404D0C6500F0B0B0AD8B4C586C7A0DB
:102C1600FED7C9501200026E0D0E016EFC0EE82E94
:102C2600FED7012EFCD7022EF7D71200C5CF01F032
:102C36001F0E0116D8A4FAD7C7A41200F7D701C0F1
:102C460003F002C004F004C0CFFF03C0CEFF1200A1
:102C5600016E0C0EBD129494CA9401C0CBFFCA84B7
:102C66001200140E016E7A0EE82EFED7012EFCD746
:102C76001200C450036EC350016E03C002F012006E
:102C8600009041009441030003000600C2A202D056
:102C9600010E1200000E1200060EE82EFED700D01E
:0C2CA6001200000EBD6E1200C28212006F
:020000040020DA
:08000000FFFFFFFFFFFFFFFF00
:020000040030CA
:0E000000FF01191EFF8181FF0FC00FE00F40AE
:00000001FF
