:0400000007EF00F016
:0A0008007F82F5ED0CF0B6EF12F068
:1006000000010000000A00000064000000E8030090
:100610000010270000A086010040420F008096983D
:100620000000E1F50500CA9A3B00803F0020410030
:10063000C842007A44401C4650C347247449971866
:100640004BBCBE4C6B6E4E03155079AD60F34971D7
:1006500000803FCDCC3DD7233C12833AB7D138C67A
:100660002737388635C0D633CC2B32708930E7DB5C
:100670002EE53C1E42A20D53484F5720414C4C20C2
:10068000444154410025732025643A25643A256489
:100690000053484F57204441544100252E326620D4
:1006A000257300286E756C6C29004E455854002542
:0906B0002E326600454E440000A4
:1006BA00440E596E000E5A6EB1EF07F0250E6C18F3
:1006CA00D8B40AD040C0D9FF41C0DAFF6CC0DFFFFE
:1006DA00404A412AB1EF07F0000E5C6E000E5B6ED5
:1006EA0042C0F6FF43C0F7FF0800F5502E0AD8A40F
:1006FA002ED05C8C424A432A000E6B6E000E6A6E44
:10070A001BD06AC00FF06BC010F0000E126E0A0EFA
:10071A00116E45EC13F042C0F6FF43C0F7FF080024
:10072A00F5500F26000E1022D00E0F246A6EFF0E0F
:10073A0010206B6E424A432A42C0F6FF43C0F7FFBD
:10074A000800F550BAEC13F0D8A06ED0DAD7000E34
:10075A006B6E000E6A6E5C8867D05C847FD059C06D
:10076A00D9FF5AC0DAFFDECF57F0DDCF58F0020EBC
:10077A005926000E5A2257505810D8A404D0A30E56
:10078A00576E060E586E000E566E000E556E02D04B
:10079A00554A562A555057244C6E565058204D6E7D
:1007AA004CC0F6FF4DC0F7FFF86A050EF76403D098
:1007BA000800F55005D0F6CFE9FFF7CFEAFFEF5072
:1007CA000009D8A4E5D76A506B10D8B424D0555084
:1007DA006A5C56506B58D8B01ED06AC055F06BC0D0
:1007EA0056F019D057C0F6FF58C0F7FFF86A40C054
:1007FA00D9FF41C0DAFF050EF76403D00800F550AF
:10080A0005D0F6CFE9FFF7CFEAFFEF50DF6E574A80
:10081A00582A404A412A5506D8A056065528E2E1E8
:10082A005628D8B499D3DED742C0F6FF43C0F7FFA3
:10083A00424A432A0800F5CF6CF06C50000AD8B43B
:10084A0098D3640AD8B40AD0020AD8B486D70F0A51
:10085A00D8B404D01A0AD8B482D77ED3070E5C144F
:10086A00D8B4B9D25CA804D0000E6B6E060E6A6EBC
:10087A0059C0D9FF5AC0DAFFDECF67F0DECF68F081
:10088A00DDCF69F0030E5926000E5A2269AE10D048
:10089A0067C001F068C002F069C003F06AEC13F0A7
:1008AA0001C067F002C068F003C069F0030E5B1272
:1008BA00000E5E6E000E5D6E675068106910D8B447
:1008CA0083D0820E4C6EFF0E4D6E67C04EF068C02C
:1008DA004FF069C050F06AC051F0100E05D0D890A0
:1008EA00513250324F324E32E82EF9D74E504C2404
:1008FA005D6E000E4D205E6E5D06D8A05E065DC080
:10090A000FF05EC010F0000E126E030E116E45EC71
:10091A0013F00FC05DF010C05EF05DC007F05EC05E
:10092A0008F0000E0A6E0A0E096E34EC10F007C0C9
:10093A005DF008C05EF05EAE03D05D06D8A05E062C
:10094A005D500008C5EC07F024C05FF025C060F0D8
:10095A0026C061F05FC015F060C016F061C017F0E4
:10096A0067C018F068C019F069C01AF002EC0EF0FE
:10097A0015C05FF016C060F017C061F05FC001F0EB
:10098A0060C002F061C003F0000E046E800E056EB6
:10099A003F0E066EECEC0FF0D8B004D05D06D8A07E
:1009AA005E0612D05FC001F060C002F061C003F0C1
:1009BA00000E046E200E056E410E066EECEC0FF072
:1009CA00D8A002D05D4A5E2A6BBE06D06B501BE1EE
:1009DA000D0E6A5CD8B017D067C02EF068C02FF031
:1009EA0069C030F06A50C9EC09F024C031F025C062
:1009FA0032F026C033F0F2EC0AF02EC067F02FC0B6
:100A0A0068F030C069F05EBE06D05E501EE10A0E84
:100A1A005D5CD8B01AD0675068106910D8B451D04C
:100A2A0067C024F068C025F069C026F088EC0DF094
:100A3A002450251026102710D8B45EBE42D05E502E
:100A4A0004E1020E5D5CD8A03CD05FC001F060C03A
:100A5A0002F061C003F0700E046E890E056E400E3E
:100A6A00066EECEC0FF0D8B002D0F70E01D0F80EFB
:100A7A005D26FF0E5E225D50C5EC07F024C05FF0D4
:100A8A0025C060F026C061F067C001F068C002F0BE
:100A9A0069C003F05FC004F060C005F061C006F0F1
:100AAA00C8EC0BF001C063F002C064F003C065F04B
:100ABA0004C066F0000E676E000E686E000E696E66
:100ACA0032D067C024F068C025F069C026F088ECEF
:100ADA000DF024C063F025C064F026C065F027C07D
:100AEA0066F067C03AF068C03BF069C03CF063C08A
:100AFA0009F064C00AF065C00BF066C00CF085EC22
:100B0A0011F009C03DF00AC03EF00BC03FF058ECAE
:100B1A0012F03AC067F03BC068F03CC069F0000EC2
:100B2A005E6E000E5D6E010E6C6E0A0E6C18D8B405
:100B3A0018D06C50040D010EF324F66E060EF42044
:100B4A00F76E0900F550635C0900F5506458090016
:100B5A00F55065580900F5506658D8A002D06C2A9D
:100B6A00E4D7030E5B144C6E000E5C144D6E4C50B1
:100B7A004D10D8B44FD040C0D9FF41C0DAFF2D0E76
:100B8A0046D063C001F064C002F065C003F066C0DD
:100B9A0004F06C50040D010EF324F66E060EF420D8
:100BAA00F76E0900F5CF05F00900F5CF06F0090048
:100BBA00F5CF07F00A00F5CF08F076EC10F001C087
:100BCA005FF002C060F003C061F004C062F05FC071
:100BDA000EF060C00FF061C010F062C011F00A0E92
:100BEA00126E000E136E000E146E000E156EEFECF0
:100BFA0010F00EC05FF00FC060F010C061F011C0BD
:100C0A0062F05F50300F40C0D9FF41C0DAFFDF6E9B
:100C1A00404A412A6C066C28D8B40CD0B2D740C0DE
:100C2A00D9FF41C0DAFF300EDF6E404A412A5D0625
:100C3A00D8A05E065EBE05D05E50F1E15D04D8B074
:100C4A00EED76BBE09D06B5004E1090E6A5CD8A0DE
:100C5A0003D0080E6C6E02D06AC06CF06C506A5EEB
:100C6A00000E6CBEFF0E6B5A6C50D8B408D040C050
:100C7A00D9FF41C0DAFF2E0EDF6E404A412A6C507E
:100C8A00C5EC07F024C052F025C053F026C054F03A
:100C9A0067C018F068C019F069C01AF052C015F0A0
:100CAA0053C016F054C017F002EC0EF015C024F031
:100CBA0016C025F017C026F088EC0DF024C063F0AA
:100CCA0025C064F026C065F027C066F06FD063C007
:100CDA0001F064C002F065C003F066C004F06C5015
:100CEA00040D010EF324F66E060EF420F76E0900C9
:100CFA00F5CF05F00900F5CF06F00900F5CF07F0AA
:100D0A000A00F5CF08F076EC10F001C05FF002C0DF
:100D1A0060F003C061F004C062F05FC00EF060C012
:100D2A000FF061C010F062C011F00A0E126E000ED0
:100D3A00136E000E146E000E156EEFEC10F00EC05E
:100D4A005FF00FC060F010C061F011C062F05F5038
:100D5A00300F40C0D9FF41C0DAFFDF6E404A412A56
:100D6A0063C00EF064C00FF065C010F066C011F0E9
:100D7A006C50040D010EF324F66E060EF420F76E85
:100D8A000900F5CF12F00900F5CF13F00900F5CFED
:100D9A0014F00A00F5CF15F0EFEC10F00EC063F076
:100DAA000FC064F010C065F011C066F06C066C28C4
:100DBA00D8B40CD08CD740C0D9FF41C0DAFF300E6E
:100DCA00DF6E404A412A6A06D8A06B066A506B1049
:100DDA00D8B4C2D0F0D759C0D9FF5AC0DAFFDECF93
:100DEA0063F0DDCF64F0000E64BEFF0E656E666EC2
:100DFA00020E5926000E5A2266AE0AD0030E5B1264
:100E0A00661E651E641E636C000E642265226622DD
:100E1A006A506B10D8A408D063506410651066102D
:100E2A00D8A402D06A4A6B2A010E6C6E0A0E6C189C
:100E3A00D8B418D06C50040D010EF324F66E060EC9
:100E4A00F420F76E0900F550635C0900F550645808
:100E5A000900F55065580900F5506658D8A002D027
:100E6A006C2AE4D7800E6CBE7F0E4C6E6A506C5CA6
:100E7A006B50800A4C58D8B003D06AC06CF010D0BE
:100E8A006B50800A4C6E6C506A5C800E6CBE7F0E92
:100E9A004C58D8B005D06C506A6E6B6A6ABE6B0645
:100EAA00030E5B144C6E000E5C144D6E4C504D10CC
:100EBA00D8B44AD040C0D9FF41C0DAFF2D0EDF6E48
:100ECA0041D06AC04CF06BC04DF0D8904C364D36CC
:100EDA00D8904C364D36010E4C24F66E060E4D2037
:100EEA00F76E0900F5CF05F00900F5CF06F0090005
:100EFA00F5CF07F00A00F5CF08F063C001F064C02F
:100F0A0002F065C003F066C004F076EC10F001C090
:100F1A000EF002C00FF003C010F004C011F00A0E68
:100F2A00126E000E136E000E146E000E156EEFECAC
:100F3A0010F00E50300F6C6E40C0D9FF41C0DAFF7E
:100F4A006CC0DFFF404A412A6A06D8A06B066A28AD
:100F5A00B8E16B28D8A4B5D742C0F6FF43C0F7FF63
:100F6A00424A432A0800F5CF6CF06C50D8A463EFCC
:100F7A0003F040C0D9FF41C0DAFF000EDF6E120055
:100F8A002A6E2AAE01D12A6C2A50800A120FD8A0E2
:100F9A0091D0000E126E030E116E000E0A6E0A0E2A
:100FAA00096E000E046E640E036E2A50016E026A08
:100FBA0001BE0206B7EC10F001C007F002C008F04B
:100FCA0034EC10F0090E07240F6E000E0820106E84
:100FDA0045EC13F0500E0F24F66E060E1020F76E35
:100FEA000900F5CF18F00900F5CF19F00A00F5CF7E
:100FFA001AF0000E0A6E640E096E2A50076E086A0D
:10100A0007BE080634EC10F0120E07240F6E000E0D
:10101A000820106E000E126E030E116E45EC13F0CE
:10102A00500E0F24F66E060E1020F76E0900F5CF4B
:10103A0015F00900F5CF16F00A00F5CF17F002EC0B
:10104A000EF015C027F016C028F017C029F027C0E7
:10105A0015F028C016F029C017F0000E126E030E04
:10106A00116E000E046E0A0E036E2A50016E026A99
:10107A0001BE0206B7EC10F001C00FF002C010F07A
:10108A0045EC13F0500E0F24F66E060E1020F76E84
:10109A000900F5CF18F00900F5CF19F00A00F5CFCD
:1010AA001AF002EC0EF015C024F016C025F017C095
:1010BA0026F012002A50800A750FD8A053D0000ECD
:1010CA000A6E0A0E096E2A50076E086A07BE0806DB
:1010DA0034EC10F0090E07240F6E000E0820106E73
:1010EA00000E126E030E116E45EC13F0500E0F2413
:1010FA00F66E060E1020F76E0900F5CF15F00900FE
:10110A00F5CF16F00A00F5CF17F0000E126E030E97
:10111A00116E000E046E0A0E036E2A50016E026AE8
:10112A0001BE0206B7EC10F001C00FF002C010F0C9
:10113A0045EC13F0500E0F24F66E060E1020F76ED3
:10114A000900F5CF18F00900F5CF19F00A00F5CF1C
:10115A001AF002EC0EF015C024F016C025F017C0E4
:10116A0026F012002A50030D500EF324F66E060ED6
:10117A00F420F76E0900F5CF24F00900F5CF25F029
:10118A000A00F5CF26F012002A50800A120FD8A0C2
:10119A0091D0000E126E030E116E000E0A6E0A0E28
:1011AA00096E000E046E640E036E2A50016E026A06
:1011BA0001BE0206B7EC10F001C007F002C008F049
:1011CA0034EC10F0090E07240F6E000E0820106E82
:1011DA0045EC13F0290E0F24F66E060E1020F76E5A
:1011EA000900F5CF18F00900F5CF19F00A00F5CF7C
:1011FA001AF0000E0A6E640E096E2A50076E086A0B
:10120A0007BE080634EC10F0120E07240F6E000E0B
:10121A000820106E000E126E030E116E45EC13F0CC
:10122A00290E0F24F66E060E1020F76E0900F5CF70
:10123A0015F00900F5CF16F00A00F5CF17F002EC09
:10124A000EF015C027F016C028F017C029F027C0E5
:10125A0015F028C016F029C017F0000E126E030E02
:10126A00116E000E046E0A0E036E2A50016E026A97
:10127A0001BE0206B7EC10F001C00FF002C010F078
:10128A0045EC13F0290E0F24F66E060E1020F76EA9
:10129A000900F5CF18F00900F5CF19F00A00F5CFCB
:1012AA001AF002EC0EF015C024F016C025F017C093
:1012BA0026F012002A50800A750FD8A053D0000ECB
:1012CA000A6E0A0E096E2A50076E086A07BE0806D9
:1012DA0034EC10F0090E07240F6E000E0820106E71
:1012EA00000E126E030E116E45EC13F0290E0F2438
:1012FA00F66E060E1020F76E0900F5CF15F00900FC
:10130A00F5CF16F00A00F5CF17F0000E126E030E95
:10131A00116E000E046E0A0E036E2A50016E026AE6
:10132A0001BE0206B7EC10F001C00FF002C010F0C7
:10133A0045EC13F0290E0F24F66E060E1020F76EF8
:10134A000900F5CF18F00900F5CF19F00A00F5CF1A
:10135A001AF002EC0EF015C024F016C025F017C0E2
:10136A0026F012002A50030D290EF324F66E060EFB
:10137A00F420F76E0900F5CF24F00900F5CF25F027
:10138A000A00F5CF26F012002D6E6D0E2D649FD047
:10139A00000E126E030E116E000E0A6E0A0E096E10
:1013AA00000E046E640E036E2DC001F0026AB7ECE3
:1013BA0010F001C007F002C008F034EC10F0090E7A
:1013CA0007240F6E000E0820106E45EC13F0500E25
:1013DA000F24F66E060E1020F76E0900F5CF18F0EE
:1013EA000900F5CF19F00A00F5CF1AF0000E0A6EBF
:1013FA00640E096E2DC007F0086A34EC10F0120E64
:10140A0007240F6E000E0820106E000E126E030ED7
:10141A00116E45EC13F0500E0F24F66E060E1020D6
:10142A00F76E0900F5CF15F00900F5CF16F00A009E
:10143A00F5CF17F002EC0EF015C02AF016C02BF00B
:10144A0017C02CF0000E126E030E116E000E046E01
:10145A000A0E036E2DC001F0026AB7EC10F001C04B
:10146A000FF002C010F045EC13F0500E0F24F66E88
:10147A00060E1020F76E0900F5CF18F00900F5CF17
:10148A0019F00A00F5CF1AF02AC015F02BC016F091
:10149A002CC017F002EC0EF015C027F016C028F089
:1014AA0017C029F027C015F028C016F029C017F078
:1014BA00000E186E000E196E3F0E1A6E02EC0EF038
:1014CA0015C024F016C025F017C026F012000A0E27
:1014DA002D6463D0000E126E030E116E000E046EA0
:1014EA000A0E036E2DC001F0026AB7EC10F001C0BB
:1014FA000FF002C010F045EC13F0500E0F24F66EF8
:10150A00060E1020F76E0900F5CF18F00900F5CF86
:10151A0019F00A00F5CF1AF0000E0A6E0A0E096ECB
:10152A002DC007F0086A34EC10F0090E07240F6E7C
:10153A00000E0820106E000E126E030E116E45EC9E
:10154A0013F0500E0F24F66E060E1020F76E0900E7
:10155A00F5CF15F00900F5CF16F00A00F5CF17F010
:10156A0002EC0EF015C02AF016C02BF017C02CF0B2
:10157A002AC015F02BC016F02CC017F0000E186EFA
:10158A00000E196E3F0E1A6E02EC0EF015C024F012
:10159A0016C025F017C026F012002D50030D500E6C
:1015AA00F324F66E060EF420F76E0900F5CF15F057
:1015BA000900F5CF16F00A00F5CF17F0000E186EE5
:1015CA00000E196E3F0E1A6E02EC0EF015C024F0D2
:1015DA0016C025F017C026F0120030C034F0356A64
:1015EA00366A2F34343601E335803450396E33C0CD
:1015FA0034F0356A366A3234343601E33580345091
:10160A00386E3950D8B40BD03850395CD8B00ED0B7
:10161A00395000083824346E180E346407D031C0AB
:10162A002EF032C02FF033C030F012003850D8B448
:10163A000BD03950385CD8B00ED038500008392455
:10164A00346E180E346407D02EC02EF02FC02FF03F
:10165A0030C030F01200060E376E30BE378E33BE01
:10166A00378C2F8EFF0E2E16FF0E2F16000E3016F9
:10167A00328EFF0E3116FF0E3216000E3316385018
:10168A00395CD8B01BD0D89031363236333638066A
:10169A0039503818D8B40DD0370637C034F0070E91
:1016AA003416D8B406D0EFD7D89030322F322E3233
:1016BA00392A38503918D8B41FD0F6D73950385C7F
:1016CA00D8B01AD0D8902E362F363036390639503F
:1016DA003818D8B40DD0370637C034F0070E341690
:1016EA00D8B406D0EFD7D890333232323132382AD2
:1016FA0038503918D8A4F7D737AE0CD0FF0E2E1AA7
:10170A00FF0E2F1AFF0E301A010E2E26000E2F2260
:10171A00000E302237AC0CD0FF0E311AFF0E321AEF
:10172A00FF0E331A010E3126000E3222000E33222A
:10173A00000E376E2E5031262F503222305033226F
:10174A0033AE0ED0FF0E311AFF0E321AFF0E331AC5
:10175A00010E3126000E3222000E3322010E376EA0
:10176A0031C001F032C002F033C003F039C004F0D6
:10177A0037C005F0EFEC0EF001C02EF002C02FF0DA
:10178A0003C030F0120003C007F0086A096A023485
:10179A00073601E3088007500F6E0F50D8A409D00E
:1017AA00000E016E000E026E000E036E000E046E35
:1017BA00120006C007F0086A096A0534073601E311
:1017CA00088007500E6E0E50D8A409D0000E016E84
:1017DA00000E026E000E036E000E046E1200028EE0
:1017EA00FF0E0116FF0E0216000E0316058EFF0EDF
:1017FA000416FF0E0516000E0616000E0A6E000EDF
:10180A000B6E000E0C6E000E0D6E7F0E0F5E0E50EC
:10181A00980F0F5E180E0E6ED8900A360B360C36DD
:10182A000D360450015C0550025806500358D8A0E2
:10183A0007D00450015E0550025A0650035A0A8026
:10184A00D8900136023603360E2EE6D70FAE16D0E2
:10185A000F50800A970FD8B009D0000E016E000E03
:10186A00026E000E036E000E046E1200D8900D3246
:10187A000C320B320A320F3EF9D715D0170E0F640D
:10188A000FD0000E016E000E026E000E036E000EE7
:10189A00046E1200D8900A360B360C360D360F0637
:1018AA000F50D8A4F7D70AC001F00BC002F00CC041
:1018BA0003F00DC004F01200033404340C6E0C5013
:1018CA00D8A409D0000E016E000E026E000E036E3F
:1018DA00000E046E1200063407340B6E0B50D8A4A7
:1018EA0009D0000E016E000E026E000E036E000E8D
:1018FA00046E1200038EFF0E0116FF0E0216FF0E73
:10190A000316000E0416068EFF0E0416FF0E0516A9
:10191A00FF0E0616000E0716000E076E000E086E62
:10192A00000E096E000E0A6E7F0E0C5E0B50A00FA1
:10193A000C5E200E0B6ED8900736083609360A362A
:10194A000450015C055002580650035807500458C9
:10195A00D8A009D00450015E0550025A0650035A15
:10196A000750045A0780D8900136023603360436E7
:10197A000B2EE1D70CAE16D00C50800A9F0FD8B0B0
:10198A0009D0000E016E000E026E000E036E000EEC
:10199A00046E1200D8900A320932083207320C3E1D
:1019AA00F9D715D01F0E0C640FD0000E016E000E71
:1019BA00026E000E036E000E046E1200D8900736F7
:1019CA00083609360A360C060C50D8A4F7D707C0D1
:1019DA0001F008C002F009C003F00AC004F01200C6
:1019EA000600FACF6DF0FBCF6EF0E9CF6FF0EACFC9
:1019FA0070F0E1CF71F0E2CF72F0D9CF73F0DACFA5
:101A0A0074F0F3CF75F0F4CF76F0F6CF77F0F7CF26
:101A1A0078F0F8CF79F0F5CF7AF07FC07BF080C00C
:101A2A007CF081C07DF082C07EF09EA046D0ABECF7
:101A3A0013F09E90800ECF6E000ECE6E0001A52B85
:101A4A0022EC11F0AF0E406E000E416E880E426E0F
:101A5A00060E436EA3C044F0456AA4C046F0476A26
:101A6A00A5C048F0496A5DEC03F0C30E406E000E53
:101A7A00416E9B0E426E060E436E9EC044F09FC09E
:101A8A0045F0A0C046F0AF0E476E000E486E5DEC02
:101A9A0003F0C30E026E000E036EB3EC11F03C0E9F
:101AAA000001A519D8A409D0A42B000EA56F3B0EDE
:101ABA00A46503D0A32B000EA46F7EC082F07DC064
:101ACA0081F07CC080F07BC07FF07AC0F5FF79C0DE
:101ADA00F8FF78C0F7FF77C0F6FF76C0F4FF75C04D
:101AEA00F3FF74C0DAFF73C0D9FF72C0E2FF71C09E
:101AFA00E1FF70C0EAFF6FC0E9FF6EC0FBFF6DC077
:101B0A00FAFF7F92110026C028F0296A2A6A253432
:101B1A00283601E329802850326E3250D8A409D0E1
:101B2A00000E246E000E256E000E266E000E276E25
:101B3A001200170E286E24C029F025C02AF026C0EC
:101B4A002BF028282C6E04D0D8902B322A32293236
:101B5A002C2EFAD729502D6E258EFF0E2416FF0E35
:101B6A002516000E261624502E6E25502F6E26504E
:101B7A00306E316A8E0E325E32AE16D03250800A24
:101B8A008F0FD8B009D0000E246E000E256E000EFD
:101B9A00266E000E276E1200D890313230322F3264
:101BAA002E32323EF9D715D0170E32640FD0000EFE
:101BBA00246E000E256E000E266E000E276E120091
:101BCA00D8902E362F363036313632063250D8A4D7
:101BDA00F7D72D50D8B408D0311E301E2F1E2E6CC8
:101BEA00000E2F22302231222EC024F02FC025F0E1
:101BFA0030C026F031C027F0120017C01BF01C6A53
:101C0A001D6A16341B3601E31C801B501E6E1E50C3
:101C1A00D8A407D0000E156E000E166E000E176EB1
:101C2A0012001AC01BF01C6A1D6A19341B3601E324
:101C3A001C801B50236E2350D8A407D0000E156EAB
:101C4A00000E166E000E176E120023507B0F1E2612
:101C5A0017C023F01A50231A800E2316168E198ED7
:101C6A00FF0E1816FF0E1916000E1A16000E1F6E1A
:101C7A00000E206E000E216E070E226E15A006D0F1
:101C8A0018501F26195020221A502122D890173294
:101C9A0016321532D890183619361A36222EEED741
:101CAA00090E226E15A006D018501F2619502022A0
:101CBA001A502122D890173216321532D890213272
:101CCA0020321F32222EEED71FC001F020C002F0B0
:101CDA0021C003F01EC004F023C005F0EFEC0EF0A3
:101CEA0001C015F002C016F003C017F0120026C09A
:101CFA002AF02B6A2C6A25342A3601E32B802A50D3
:101D0A00316E3150D8A407D0000E246E000E256E15
:101D1A00000E266E120029C02AF02B6A2C6A28347B
:101D2A002A3601E32B802A50326E3250D8A407D0CB
:101D3A00000E246E000E256E000E266E1200000E96
:101D4A002E6E000E2F6E000E306E3250890F315EED
:101D5A0026C032F02950321A800E3216258EFF0E16
:101D6A002416FF0E2516000E2616288EFF0E27169D
:101D7A00FF0E2816000E2916180E2D6ED8902E3634
:101D8A002F3630362750245C28502558295026589B
:101D9A00D8A007D02750245E2850255A2950265A01
:101DAA002E80D8902436253626362D2EE7D72EC0FB
:101DBA0001F02FC002F030C003F031C004F032C08D
:101DCA0005F0EFEC0EF001C024F002C025F003C0CC
:101DDA0026F012000450D8B405D0015002100310A6
:101DEA00D8A40CD0000E016E000E026E000E036E17
:101DFA001200042AD890033202320132000E011472
:101E0A00066E000E0214076EFE0E0314086E0650CC
:101E1A0007100810D8B40CD0ECD7042A010E0126FA
:101E2A00000E0222000E0322D8900332023201323F
:101E3A00000E0114066E000E0214076EFF0E031444
:101E4A00086E065007100810D8B406D0E6D7040664
:101E5A00D89001360236033602BE03D0020E046061
:101E6A00F6D704A0029ED8900432045003120550FB
:101E7A00D8A4038E01C001F002C002F003C003F02F
:101E8A0012000001D16FF00E8116F00E9316929493
:101E9A0092969292899489968992D4EC13F0300E94
:101EAA0036EC12F0050E9CEC13F0300E36EC12F004
:101EBA00010E9CEC13F0320E36EC12F0D3EC12F059
:101ECA000009D8A4FBD7D3EC12F00009D8A4FBD799
:101EDA000001D15136EC12F0D3EC12F00009D8A46B
:101EEA00FBD7080E36EC12F0D3EC12F00009D8A496
:101EFA00FBD70F0E36EC12F0D3EC12F00009D8A47F
:101F0A00FBD7010E36EC12F0D3EC12F00009D8A47C
:101F1A00FBD7040E36EC12F0D3EC12F00009D8A469
:101F2A00FBD7800EE1EC11F01200056EF00E81165F
:101F3A00F00E931692949296929289948996899227
:101F4A00E8EC13F0300E78EC12F0050EC9EC13F041
:101F5A00300E78EC12F0010EC9EC13F0320E78EC68
:101F6A0012F0F0EC12F00009D8A4FBD7F0EC12F052
:101F7A000009D8A4FBD7055078EC12F0F0EC12F067
:101F8A000009D8A4FBD7080E78EC12F0F0EC12F096
:101F9A000009D8A4FBD70F0E78EC12F0F0EC12F07F
:101FAA000009D8A4FBD7010E78EC12F0F0EC12F07D
:101FBA000009D8A4FBD7040E78EC12F0F0EC12F06A
:101FCA000009D8A4FBD7800E0DEC12F0120003AE64
:101FDA0016D001C007F002C008F003C009F0071EBE
:101FEA00081E091E072A000E08220922000E0724CD
:101FFA00016E000E0820026E800E0920036E06AEE6
:10200A0016D004C007F005C008F006C009F0071E84
:10201A00081E091E072A000E08220922000E07249C
:10202A00046E000E0820056E800E0920066E000E52
:10203A00011A000E021A800E031A000E041A000E6C
:10204A00051A800E061A0450015C05500258065003
:10205A000358D8B002D0D8901200D8801200000ECF
:10206A000C6E0AAE06D0096C0A1ED8B00A2A010EF6
:10207A000C6E08AE06D0076C081ED8B0082A010EEE
:10208A000C1A000E0E6E000E0D6E09500A10D8B40E
:10209A001CD0010E0B6E04D0D89009360A360B2AD2
:1020AA000AAEFAD7D8900D360E360950075C0A5098
:1020BA000858D8A005D00950075E0A50085A0D8062
:1020CA00D8900A3209320B2EEDD70C50D8B404D06E
:1020DA000D6C0E1ED8B00E2A0DC007F00EC008F007
:1020EA001200000E096E000E0A6E000E0B6E000E34
:1020FA000C6E0550061007100810D8B42AD0010E2D
:10210A000D6E06D0D89005360636073608360D2AE3
:10211A0008AEF8D7D89009360A360B360C36055071
:10212A00015C065002580750035808500458D8A0BA
:10213A0009D00550015E0650025A0750035A08504A
:10214A00045A0980D89008320732063205320D2E19
:10215A00E1D709C001F00AC002F00BC003F00CC0BD
:10216A0004F01200000E066E02AE06D0016C021ECA
:10217A00D8B0022A010E066E04AE04D0036C041E07
:10218A00D8B0042A03500410D8B418D0010E056E32
:10219A0004D0D89003360436052A04AEFAD7035081
:1021AA00015C04500258D8A004D00350015E0450C8
:1021BA00025AD89004320332052EF1D70650D8B409
:1021CA0004D0016C021ED8B0022A01C001F002C07C
:1021DA0002F012001250131014101510D8B424D0A3
:1021EA00010E166E06D0D8901236133614361536EE
:1021FA00162A15AEF8D712500E5C13500F58145009
:10220A00105815501158D8A008D012500E5E13500D
:10221A000F5A1450105A1550115AD89015321432B8
:10222A0013321232162EE7D70EC00EF00FC00FF07F
:10223A0010C010F011C011F0120010EC14F0FDECF7
:10224A0013F00009D8A4FBD7000E186EC80E196E39
:10225A00420E1A6EF0EC13F001C009F002C00AF047
:10226A0029EC13F009C015F00AC016F00BC017F0DC
:10227A0002EC0EF015C024F016C025F017C026F0A7
:10228A00000E276E7F0E286E430E296E7CEC0EF030
:10229A0024C09EF025C09FF026C0A0F012000001C5
:1022AA00D16F000EC26E000EC06E0001D890CD3103
:1022BA003C0BC26ECDC0CFF0CF3BF00ECF17300E25
:1022CA00CF17CE510F0BCF11C16ED1C0CFF0D8901E
:1022DA00CF37D890CF37380ECF17D1C0D0F0D03BF8
:1022EA000F0ED017070ED017D151800BD011CF1176
:1022FA00C06ECDAF03D09E9C9D8CF28CC280120022
:10230A008E0E116E06D0D8900C320B320A32093278
:10231A00112A000E09140D6E000E0A140E6E000E1C
:10232A000B140F6EFF0E0C14106E0D500E100F10C2
:10233A001010D8A4E8D709C001F00AC002F00BC0F7
:10234A0003F011C004F0000E056EEFEC0EF001C0B0
:10235A0009F002C00AF003C00BF0120019D0F0EC29
:10236A0012F00009D8A4FBD702C0F6FF03C0F7FF9A
:10237A00F86A050EF76403D00800F55005D0F6CFC9
:10238A00E9FFF7CFEAFFEF5097EC12F0024A032A6F
:10239A0002C0F6FF03C0F7FFF86A050EF76403D020
:1023AA000800F55005D0F6CFE9FFF7CFEAFFEF5066
:1023BA000009D8B41200D3D70001D06FF00E9316DB
:1023CA00F00E81160001D051CD6FCE6BCD8F040E69
:1023DA00CF6FCE35CE33CD33CF2FFBD7CD510F0BA9
:1023EA0081128994899603EC14F0898203EC14F023
:1023FA008992F00E81160001D0510F0B811203EC65
:10240A0014F0898203EC14F089920F0E93121200D1
:10241A00046EF00E9316F00E81160450016E026AD5
:10242A00018E040E036E023402320132032EFBD7F0
:10243A0001500F0B81128994899608EC14F0898255
:10244A0008EC14F08992F00E811604500F0B8112D9
:10245A0008EC14F0898208EC14F089920F0E93129A
:10246A0012000001CD6FF00E9316F00E81160001D6
:10247A00CD390F0B0F0B81128994899603EC14F056
:10248A00898203EC14F08992F00E81160001CD5175
:10249A000F0B811203EC14F0898203EC14F0899279
:1024AA000F0E931212003D503E103F10D8B406D0C2
:1024BA00000E3D1A000E3E1A800E3F1A3AC02EF048
:1024CA003BC02FF03CC030F03DC031F03EC032F08E
:1024DA003FC033F0F2EC0AF02EC03AF02FC03BF0C6
:1024EA0030C03CF01200016EF00E9316F00E811609
:1024FA0001380F0B0F0B81128994899608EC14F09E
:10250A00898208EC14F08992F00E811601500F0BA3
:10251A00811208EC14F0898208EC14F089920F0EEB
:10252A0093121200016EF00E9316F00E8116013806
:10253A000F0B0F0B81128986899408EC14F089829B
:10254A0008EC14F08992F00E811601500F0B8112DB
:10255A0008EC14F0898208EC14F089920F0E931299
:10256A001200EE0EF66E270EF76E000EF86E00EEF3
:10257A00D2F010EE0CF00900F5CFEEFFE550E15075
:10258A00FAE100EE80F02F0EEE6AE806FDE17F9098
:10259A007F92000EF86E000158EF13F08984899635
:1025AA0003EC14F0898203EC14F081A60AD0899214
:1025BA0003EC14F0898203EC14F089928994010ED9
:1025CA001200899203EC14F0898203EC14F08992C8
:1025DA008994000E12008984899608EC14F0898285
:1025EA0008EC14F081A60AD0899208EC14F08982CA
:1025FA0008EC14F089928994010E1200899208EC71
:10260A0014F0898208EC14F089928994000E120061
:10261A00000E0101006F000E036F000E046F000E22
:10262A00016F000E056F000E026F9280C50E036FD8
:10263A00040E046FFE0E056F04C1CDF005C1CEF085
:10264A00035154EC11F01200000E0C6E0AAE06D0C3
:10265A00096C0A1ED8B00A2A010E0C6E09C001F0D4
:10266A000AC002F0036A8E0E046E0CC005F0EFEC8D
:10267A000EF001C009F002C00AF003C00BF012000C
:10268A000F501102F3CF13F0F4CF14F00F501202CF
:10269A00F350142610501102F350142613C00FF0F1
:1026AA0014C010F0120089688A689468270EC86EF0
:1026BA00DEEC13F00DEC13F08DEC13F0800E00013C
:1026CA00CD6F080E7CEC13F0FFD7015002100310F7
:1026DA00D8B406D0000E011A000E021A800E031A90
:1026EA0001C001F002C002F003C003F012000001B1
:1026FA00CE6F3F0EC716000EC66E000EC56E0001E5
:10270A00CE51C612CD51C71294869488C68A120039
:10271A00280E46EC0FF0D3EC12F00009D8A4FBD730
:10272A00060E36EC12F00C0E36EC12F01200000116
:10273A00CE6F0D0E0001CD6FFB0EE82EFED7CD2F0A
:10274A00FCD700D00001CE2FF4D71200280E9AEC45
:10275A000FF0F0EC12F00009D8A4FBD7060E78ECC3
:10276A0012F00C0E78EC12F01200036E000E026EDC
:10277A003A0E036005D02F0E036402D0010E026EDA
:10278A0002C001F001301200026E0D0E016EFC0E45
:10279A00E82EFED7012EFCD7022EF7D71200140E10
:1027AA000001CD6F790EE82EFED7CD2FFCD700D0D1
:1027BA0012008F0ECD6E800ECF6E000ECE6E9D80F3
:1027CA00F28EF28C1200140E016E7A0EE82EFED7EB
:1027DA00012EFCD71200C450036EC350016E03C011
:1027EA0002F0120000904100944103000300060029
:1027FA00C2A202D0010E1200000E1200060EE82E2E
:10280A00FED700D01200060EE82EFED700D0120026
:0A281A00CD909D901200C2821200C2
:020000040020DA
:08000000FFFFFFFFFFFFFFFF00
:020000040030CA
:0E000000FF01191EFF8181FF0FC00FE00F40AE
:00000001FF
