:0400000037EF04F0E2
:10060000004C434420446973706C617920202020A1
:100610002000546573740000056EF00E8116F00E14
:1006200093169294929692928994899689922FEC3D
:1006300004F0300ECEEC03F0050E24EC04F0300E86
:10064000CEEC03F0010E24EC04F0320ECEEC03F0FD
:10065000EDEC03F00009D8A4FBD7EDEC03F00009A2
:10066000D8A4FBD70550CEEC03F0EDEC03F0000965
:10067000D8A4FBD7080ECEEC03F0EDEC03F0000994
:10068000D8A4FBD70F0ECEEC03F0EDEC03F000097D
:10069000D8A4FBD7010ECEEC03F0EDEC03F000097B
:1006A000D8A4FBD7040ECEEC03F0EDEC03F0000968
:1006B000D8A4FBD7800E5EEC03F01200046EF00E9F
:1006C0009316F00E81160450016E026A018E040E1C
:1006D000036E023402320132032EFBD701500F0B9E
:1006E0008112899489963EEC04F089823EEC04F0F4
:1006F0008992F00E811604500F0B81123EEC04F02B
:1007000089823EEC04F089920F0E93121200820E41
:10071000066EDE0EE82EFED7062EFCD789688A68A4
:10072000240E0CEC03F0EDEC03F00009D8A4FBD789
:10073000060ECEEC03F00C0ECEEC03F000F0120E21
:10074000026E060E036E0AEC04F0400E5EEC03F03F
:10075000010E026E060E036E0AEC04F0F0D7016E75
:10076000F00E9316F00E811601380F0B0F0B81124D
:10077000898689943EEC04F089823EEC04F08992EB
:10078000F00E811601500F0B81123EEC04F08982AD
:100790003EEC04F089920F0E93121200016EF00EDF
:1007A0009316F00E811601380F0B0F0B81128994EE
:1007B00089963EEC04F089823EEC04F08992F00EBA
:1007C000811601500F0B81123EEC04F089823EEC41
:1007D00004F089920F0E93121200898489963EECE0
:1007E00004F089823EEC04F081A60AD089923EECA6
:1007F00004F089823EEC04F089928994010E120083
:1008000089923EEC04F089823EEC04F0899289944E
:10081000000E12000FD0EDEC03F00009D8A4FBD7B6
:1008200002C0F6FF03C0F7FF0800F550AFEC03F07D
:10083000024A032A02C0F6FF03C0F7FF0800F55082
:100840000009D8B41200E7D7026E0D0E016EFC0E3F
:10085000E82EFED7012EFCD7022EF7D71200140E79
:10086000016E7A0EE82EFED7012EFCD71200000E84
:10087000F86E060EF76E000187EF03F0060EE82E05
:06088000FED700D01200BB
:020000040020DA
:08000000FFFFFFFFFFFFFFFF00
:020000040030CA
:0E000000FF01191EFF8181FF0FC00FE00F40AE
:00000001FF
