:04000000C1EF05F057
:100600000001000A006400E80310275465737400B9
:1006100025640000110E146E000E156E8CD0250E90
:100620001A18D8B409D00DC0D9FF0EC0DAFF1AC00D
:10063000DFFF0D4A0E2A7FD0000E166E0FC0F6FFA8
:1006400010C0F7FF0F4A102A0800F5CF1AF01A5011
:10065000000AD8B47CD0640AD8B403D00D0AD8A458
:100660006AD014C0D9FF15C0DAFFDECF18F0DDCF95
:1006700019F0020E1426000E152219AE06D0030E34
:100680001612186C191ED8B0192A010E1A6E050E12
:100690001A18D8B412D01A50020D010EF324F66EB7
:1006A000060EF420F76E0900F550185C0900F550AD
:1006B0001958D8A002D01A2AEAD716C013F0030E90
:1006C0001316D8B408D00DC0D9FF0EC0DAFF2D0E16
:1006D000DF6E0D4A0E2A1AC017F029D01750020DEE
:1006E000010EF324F66E060EF420F76E0900F5CF26
:1006F00003F00A00F5CF04F018C001F019C002F0B1
:10070000C4EC04F001C008F002C009F0000E0B6E4A
:100710000A0E0A6E16EC05F00850300F1A6E0DC066
:10072000D9FF0EC0DAFF1AC0DFFF0D4A0E2A1706E6
:100730001728D8A4D3D70FC0F6FF10C0F7FF0F4A71
:10074000102A0800F5CF1AF01A50D8A468D70DC0A7
:10075000D9FF0EC0DAFF000EDF6E1200820E1B6E94
:10076000DE0EE82EFED71B2EFCD789688A6892EC35
:1007700005F0000E316E000E366E000E376E000E64
:10078000326E000E386E000E336E9280C50E366EDD
:10079000040E376EFE0E386E37C001F038C002F01E
:1007A000365067EC04F0CEEC05F0BBEC05F0000928
:1007B000D8A4FBD7B4EC05F001C034F002C035F08A
:1007C0001D0E0D6E000E0E6E100E0F6E060E106ECC
:1007D00034C011F035C012F00AEC03F01D0E026EA9
:1007E000000E036E96EC04F0030E1C6E8A0E1B6E58
:1007F000560EE82EFED71B2EFCD71C2EFAD792ECF5
:1008000005F00B0E026E060E036E96EC04F0030E5E
:100810001C6E8A0E1B6E560EE82EFED71B2EFCD7C2
:100820001C2EFAD792EC05F0BED7056EF00E81169D
:10083000F00E931692949296929289948996899248
:10084000ACEC05F0300E56EC05F0050EA1EC05F011
:10085000300E56EC05F0010EA1EC05F0320E56EC10
:1008600005F075EC05F00009D8A4FBD775EC05F090
:100870000009D8A4FBD7055056EC05F075EC05F03F
:100880000009D8A4FBD7080E56EC05F075EC05F06E
:100890000009D8A4FBD70F0E56EC05F075EC05F057
:1008A0000009D8A4FBD7010E56EC05F075EC05F055
:1008B0000009D8A4FBD7040E56EC05F075EC05F042
:1008C0000009D8A4FBD7800EEDEC04F01200056EF1
:1008D000000EC26E000EC06ED89001303C0BC26E8E
:1008E00001C003F0033AF00E0316300E0316025057
:1008F0000F0B0310C16E05C003F0D8900336D890DB
:100900000336380E031605C004F0043A0F0E041621
:10091000070E04160550800B04100310C06E01AEC4
:1009200003D09E9C9D8CF28CC280120019D075EC75
:1009300005F00009D8A4FBD702C0F6FF03C0F7FFFB
:10094000F86A050EF76403D00800F55005D0F6CF1D
:10095000E9FFF7CFEAFFEF5037EC05F0024A032A30
:1009600002C0F6FF03C0F7FFF86A050EF76403D074
:100970000800F55005D0F6CFE9FFF7CFEAFFEF50BA
:100980000009D8B41200D3D7000E066E000E056E13
:1009900003500410D8B41CD0010E076E04D0D890B8
:1009A00003360436072A04AEFAD7D8900536063641
:1009B0000350015C04500258D8A005D00350015EDA
:1009C0000450025A0580D89004320332072EEDD726
:1009D00005C001F006C002F01200046EF00E93167E
:1009E000F00E81160450016E026A018E040E036E31
:1009F000023402320132032EFBD701500F0B811259
:100A000089948996C6EC05F08982C6EC05F0899236
:100A1000F00E811604500F0B8112C6EC05F089828E
:100A2000C6EC05F089920F0E931212000A500B10BB
:100A3000D8B418D0010E0C6E04D0D8900A360B36FC
:100A40000C2A0BAEFAD70A50085C0B500958D8A0F4
:100A500004D00A50085E0B50095AD8900B320A3263
:100A60000C2EF1D708C008F009C009F01200016E81
:100A7000F00E9316F00E811601380F0B0F0B81123A
:100A800089868994C6EC05F08982C6EC05F08992C6
:100A9000F00E811601500F0B8112C6EC05F0898211
:100AA000C6EC05F089920F0E93121200016EF00E43
:100AB0009316F00E811601380F0B0F0B81128994DB
:100AC0008996C6EC05F08982C6EC05F08992F00E95
:100AD000811601500F0B8112C6EC05F08982C6EC1D
:100AE00005F089920F0E9312120089848996C6EC44
:100AF00005F08982C6EC05F081A60AD08992C6EC81
:100B000005F08982C6EC05F089928994010E1200E5
:100B10008992C6EC05F08982C6EC05F08992899429
:100B2000000E1200280E15EC04F075EC05F000091B
:100B3000D8A4FBD7060E56EC05F00C0E56EC05F0CB
:100B40001200026E0D0E016EFC0EE82EFED7012E75
:100B5000FCD7022EF7D71200140E016E7A0EE82E83
:100B6000FED7012EFCD71200C450036EC350016E95
:100B700003C002F01200C2A202D0010E1200000E49
:100B80001200000EF86E0001AEEF03F0060EE82E24
:100B9000FED700D01200C2909D9C1200C2821200AB
:020000040020DA
:08000000FFFFFFFFFFFFFFFF00
:020000040030CA
:0E000000FF01191EFF8181FF0FC00FE00F40AE
:00000001FF
